{
  "_format": "hh-sol-artifact-1",
  "contractName": "Marketplace",
  "sourceName": "contracts/Marketplace.sol",
  "abi": [
    {
      "inputs": [],
      "stateMutability": "nonpayable",
      "type": "constructor"
    },
    {
      "anonymous": false,
      "inputs": [
        {
          "indexed": true,
          "internalType": "address",
          "name": "owner",
          "type": "address"
        },
        {
          "indexed": true,
          "internalType": "address",
          "name": "approved",
          "type": "address"
        },
        {
          "indexed": true,
          "internalType": "uint256",
          "name": "tokenId",
          "type": "uint256"
        }
      ],
      "name": "Approval",
      "type": "event"
    },
    {
      "anonymous": false,
      "inputs": [
        {
          "indexed": true,
          "internalType": "address",
          "name": "owner",
          "type": "address"
        },
        {
          "indexed": true,
          "internalType": "address",
          "name": "operator",
          "type": "address"
        },
        {
          "indexed": false,
          "internalType": "bool",
          "name": "approved",
          "type": "bool"
        }
      ],
      "name": "ApprovalForAll",
      "type": "event"
    },
    {
      "anonymous": false,
      "inputs": [
        {
          "indexed": false,
          "internalType": "address",
          "name": "seller",
          "type": "address"
        },
        {
          "indexed": false,
          "internalType": "uint256",
          "name": "quantity",
          "type": "uint256"
        },
        {
          "indexed": false,
          "internalType": "uint256",
          "name": "price",
          "type": "uint256"
        }
      ],
      "name": "NFTListed",
      "type": "event"
    },
    {
      "anonymous": false,
      "inputs": [
        {
          "indexed": false,
          "internalType": "uint256",
          "name": "_id",
          "type": "uint256"
        }
      ],
      "name": "NFTMinted",
      "type": "event"
    },
    {
      "anonymous": false,
      "inputs": [
        {
          "indexed": false,
          "internalType": "address",
          "name": "seller",
          "type": "address"
        },
        {
          "indexed": false,
          "internalType": "address",
          "name": "buyer",
          "type": "address"
        },
        {
          "indexed": false,
          "internalType": "uint256",
          "name": "price",
          "type": "uint256"
        }
      ],
      "name": "NFTSold",
      "type": "event"
    },
    {
      "anonymous": false,
      "inputs": [
        {
          "indexed": true,
          "internalType": "address",
          "name": "from",
          "type": "address"
        },
        {
          "indexed": true,
          "internalType": "address",
          "name": "to",
          "type": "address"
        },
        {
          "indexed": true,
          "internalType": "uint256",
          "name": "tokenId",
          "type": "uint256"
        }
      ],
      "name": "Transfer",
      "type": "event"
    },
    {
      "inputs": [],
      "name": "LISTING_FEE",
      "outputs": [
        {
          "internalType": "uint256",
          "name": "",
          "type": "uint256"
        }
      ],
      "stateMutability": "view",
      "type": "function"
    },
    {
      "inputs": [
        {
          "internalType": "address",
          "name": "to",
          "type": "address"
        },
        {
          "internalType": "uint256",
          "name": "tokenId",
          "type": "uint256"
        }
      ],
      "name": "approve",
      "outputs": [],
      "stateMutability": "nonpayable",
      "type": "function"
    },
    {
      "inputs": [
        {
          "internalType": "address",
          "name": "owner",
          "type": "address"
        }
      ],
      "name": "balanceOf",
      "outputs": [
        {
          "internalType": "uint256",
          "name": "",
          "type": "uint256"
        }
      ],
      "stateMutability": "view",
      "type": "function"
    },
    {
      "inputs": [
        {
          "internalType": "string",
          "name": "_tokenUri",
          "type": "string"
        }
      ],
      "name": "buyNft",
      "outputs": [],
      "stateMutability": "payable",
      "type": "function"
    },
    {
      "inputs": [
        {
          "internalType": "uint256",
          "name": "tokenId",
          "type": "uint256"
        }
      ],
      "name": "getApproved",
      "outputs": [
        {
          "internalType": "address",
          "name": "",
          "type": "address"
        }
      ],
      "stateMutability": "view",
      "type": "function"
    },
    {
      "inputs": [],
      "name": "getListingFee",
      "outputs": [
        {
          "internalType": "uint256",
          "name": "",
          "type": "uint256"
        }
      ],
      "stateMutability": "view",
      "type": "function"
    },
    {
      "inputs": [
        {
          "internalType": "address",
          "name": "owner",
          "type": "address"
        },
        {
          "internalType": "address",
          "name": "operator",
          "type": "address"
        }
      ],
      "name": "isApprovedForAll",
      "outputs": [
        {
          "internalType": "bool",
          "name": "",
          "type": "bool"
        }
      ],
      "stateMutability": "view",
      "type": "function"
    },
    {
      "inputs": [
        {
          "internalType": "string",
          "name": "_tokenUri",
          "type": "string"
        },
        {
          "internalType": "uint256",
          "name": "_price",
          "type": "uint256"
        },
        {
          "internalType": "uint256",
          "name": "_quantity",
          "type": "uint256"
        }
      ],
      "name": "listNft",
      "outputs": [],
      "stateMutability": "payable",
      "type": "function"
    },
    {
      "inputs": [],
      "name": "name",
      "outputs": [
        {
          "internalType": "string",
          "name": "",
          "type": "string"
        }
      ],
      "stateMutability": "view",
      "type": "function"
    },
    {
      "inputs": [
        {
          "internalType": "string",
          "name": "_tokenUri",
          "type": "string"
        }
      ],
      "name": "nftExists",
      "outputs": [
        {
          "internalType": "bool",
          "name": "",
          "type": "bool"
        }
      ],
      "stateMutability": "view",
      "type": "function"
    },
    {
      "inputs": [
        {
          "internalType": "uint256",
          "name": "tokenId",
          "type": "uint256"
        }
      ],
      "name": "ownerOf",
      "outputs": [
        {
          "internalType": "address",
          "name": "",
          "type": "address"
        }
      ],
      "stateMutability": "view",
      "type": "function"
    },
    {
      "inputs": [
        {
          "internalType": "address",
          "name": "from",
          "type": "address"
        },
        {
          "internalType": "address",
          "name": "to",
          "type": "address"
        },
        {
          "internalType": "uint256",
          "name": "tokenId",
          "type": "uint256"
        }
      ],
      "name": "safeTransferFrom",
      "outputs": [],
      "stateMutability": "nonpayable",
      "type": "function"
    },
    {
      "inputs": [
        {
          "internalType": "address",
          "name": "from",
          "type": "address"
        },
        {
          "internalType": "address",
          "name": "to",
          "type": "address"
        },
        {
          "internalType": "uint256",
          "name": "tokenId",
          "type": "uint256"
        },
        {
          "internalType": "bytes",
          "name": "data",
          "type": "bytes"
        }
      ],
      "name": "safeTransferFrom",
      "outputs": [],
      "stateMutability": "nonpayable",
      "type": "function"
    },
    {
      "inputs": [
        {
          "internalType": "address",
          "name": "operator",
          "type": "address"
        },
        {
          "internalType": "bool",
          "name": "approved",
          "type": "bool"
        }
      ],
      "name": "setApprovalForAll",
      "outputs": [],
      "stateMutability": "nonpayable",
      "type": "function"
    },
    {
      "inputs": [
        {
          "internalType": "bytes4",
          "name": "interfaceId",
          "type": "bytes4"
        }
      ],
      "name": "supportsInterface",
      "outputs": [
        {
          "internalType": "bool",
          "name": "",
          "type": "bool"
        }
      ],
      "stateMutability": "view",
      "type": "function"
    },
    {
      "inputs": [],
      "name": "symbol",
      "outputs": [
        {
          "internalType": "string",
          "name": "",
          "type": "string"
        }
      ],
      "stateMutability": "view",
      "type": "function"
    },
    {
      "inputs": [
        {
          "internalType": "uint256",
          "name": "tokenId",
          "type": "uint256"
        }
      ],
      "name": "tokenURI",
      "outputs": [
        {
          "internalType": "string",
          "name": "",
          "type": "string"
        }
      ],
      "stateMutability": "view",
      "type": "function"
    },
    {
      "inputs": [
        {
          "internalType": "address",
          "name": "from",
          "type": "address"
        },
        {
          "internalType": "address",
          "name": "to",
          "type": "address"
        },
        {
          "internalType": "uint256",
          "name": "tokenId",
          "type": "uint256"
        }
      ],
      "name": "transferFrom",
      "outputs": [],
      "stateMutability": "nonpayable",
      "type": "function"
    }
  ],
  "bytecode": "0x6080604052655af3107a4000600b553480156200001b57600080fd5b50604051806040016040528060098152602001682137b7b5a1b7bb32b960b91b8152506040518060400160405280600381526020016244424360e81b8152506001600081905550816001908162000073919062000152565b50600262000082828262000152565b505060098054336001600160a01b03199182168117909255600c80549091169091179055506200021e565b634e487b7160e01b600052604160045260246000fd5b600181811c90821680620000d857607f821691505b602082108103620000f957634e487b7160e01b600052602260045260246000fd5b50919050565b601f8211156200014d57600081815260208120601f850160051c81016020861015620001285750805b601f850160051c820191505b81811015620001495782815560010162000134565b5050505b505050565b81516001600160401b038111156200016e576200016e620000ad565b62000186816200017f8454620000c3565b84620000ff565b602080601f831160018114620001be5760008415620001a55750858301515b600019600386901b1c1916600185901b17855562000149565b600085815260208120601f198616915b82811015620001ef57888601518255948401946001909101908401620001ce565b50858210156200020e5787850151600019600388901b60f8161c191681555b5050505050600190811b01905550565b612524806200022e6000396000f3fe6080604052600436106101095760003560e01c806370a0823111610095578063b8fe6abe11610064578063b8fe6abe146102d8578063c87b56dd146102ed578063d5efffaf1461030d578063e1a7424114610320578063e985e9c51461033357600080fd5b806370a082311461026357806395d89b4114610283578063a22cb46514610298578063b88d4fde146102b857600080fd5b806323b872dd116100dc57806323b872dd146101bf5780632b86ae38146101df57806342842e0e146102035780636352211e1461022357806365c4b8fd1461024357600080fd5b806301ffc9a71461010e57806306fdde0314610143578063081812fc14610165578063095ea7b31461019d575b600080fd5b34801561011a57600080fd5b5061012e610129366004611d17565b610353565b60405190151581526020015b60405180910390f35b34801561014f57600080fd5b506101586103a5565b60405161013a9190611d84565b34801561017157600080fd5b50610185610180366004611d97565b610437565b6040516001600160a01b03909116815260200161013a565b3480156101a957600080fd5b506101bd6101b8366004611dcc565b61045e565b005b3480156101cb57600080fd5b506101bd6101da366004611df6565b610578565b3480156101eb57600080fd5b506101f5600b5481565b60405190815260200161013a565b34801561020f57600080fd5b506101bd61021e366004611df6565b6105a9565b34801561022f57600080fd5b5061018561023e366004611d97565b6105c4565b34801561024f57600080fd5b5061012e61025e366004611ede565b610624565b34801561026f57600080fd5b506101f561027e366004611f13565b6107a4565b34801561028f57600080fd5b5061015861082a565b3480156102a457600080fd5b506101bd6102b3366004611f2e565b610839565b3480156102c457600080fd5b506101bd6102d3366004611f6a565b610848565b3480156102e457600080fd5b50600b546101f5565b3480156102f957600080fd5b50610158610308366004611d97565b610880565b6101bd61031b366004611ede565b610990565b6101bd61032e366004611fe6565b610d2a565b34801561033f57600080fd5b5061012e61034e366004612034565b6110ad565b60006001600160e01b031982166380ac58cd60e01b148061038457506001600160e01b03198216635b5e139f60e01b145b8061039f57506301ffc9a760e01b6001600160e01b03198316145b92915050565b6060600180546103b490612067565b80601f01602080910402602001604051908101604052809291908181526020018280546103e090612067565b801561042d5780601f106104025761010080835404028352916020019161042d565b820191906000526020600020905b81548152906001019060200180831161041057829003601f168201915b5050505050905090565b6000610442826110db565b506000908152600560205260409020546001600160a01b031690565b6000610469826105c4565b9050806001600160a01b0316836001600160a01b0316036104db5760405162461bcd60e51b815260206004820152602160248201527f4552433732313a20617070726f76616c20746f2063757272656e74206f776e656044820152603960f91b60648201526084015b60405180910390fd5b336001600160a01b03821614806104f757506104f781336110ad565b6105695760405162461bcd60e51b815260206004820152603d60248201527f4552433732313a20617070726f76652063616c6c6572206973206e6f7420746f60448201527f6b656e206f776e6572206f7220617070726f76656420666f7220616c6c00000060648201526084016104d2565b610573838361113a565b505050565b61058233826111a8565b61059e5760405162461bcd60e51b81526004016104d29061209b565b610573838383611206565b61057383838360405180602001604052806000815250610848565b6000818152600360205260408120546001600160a01b03168061039f5760405162461bcd60e51b8152602060048201526018602482015277115490cdcc8c4e881a5b9d985b1a59081d1bdad95b88125160421b60448201526064016104d2565b600080600d8360405161063791906120e8565b90815260408051918290036020908101832060c08401835280546001600160a01b03168452600181015484830152600281015460ff1615158484015260038101546060850152600481018054845181850281018501909552808552919360808601939092908301828280156106d557602002820191906000526020600020905b81546001600160a01b031681526001909101906020018083116106b7575b505050505081526020016005820180546106ee90612067565b80601f016020809104026020016040519081016040528092919081815260200182805461071a90612067565b80156107675780601f1061073c57610100808354040283529160200191610767565b820191906000526020600020905b81548152906001019060200180831161074a57829003601f168201915b505050505081525050905080602001516000148061078757506060810151155b156107955750600092915050565b50600192915050565b50919050565b60006001600160a01b03821661080e5760405162461bcd60e51b815260206004820152602960248201527f4552433732313a2061646472657373207a65726f206973206e6f7420612076616044820152683634b21037bbb732b960b91b60648201526084016104d2565b506001600160a01b031660009081526004602052604090205490565b6060600280546103b490612067565b610844338383611377565b5050565b61085233836111a8565b61086e5760405162461bcd60e51b81526004016104d29061209b565b61087a84848484611445565b50505050565b606061088b826110db565b600082815260076020526040812080546108a490612067565b80601f01602080910402602001604051908101604052809291908181526020018280546108d090612067565b801561091d5780601f106108f25761010080835404028352916020019161091d565b820191906000526020600020905b81548152906001019060200180831161090057829003601f168201915b50505050509050600061093b60408051602081019091526000815290565b9050805160000361094d575092915050565b81511561097f578082604051602001610967929190612104565b60405160208183030381529060405292505050919050565b61098884611478565b949350505050565b6109986114ec565b6000600d826040516109aa91906120e8565b908152602001604051809103902090506109c382610624565b1515600114610a095760405162461bcd60e51b815260206004820152601260248201527113919508191bd95cc81b9bdd08195e1a5cdd60721b60448201526064016104d2565b80600101543414610a775760405162461bcd60e51b815260206004820152603260248201527f4e6f7420656e6f756768206f7220746f6f206d75636820657468657220746f20604482015271636f7665722061736b696e6720707269636560701b60648201526084016104d2565b6003810154600482015410610abf5760405162461bcd60e51b815260206004820152600e60248201526d1391951cc81b585e1959081bdd5d60921b60448201526064016104d2565b610ac882611545565b50600481018054600181018255600091825260209091200180546001600160a01b031916331790556040518190600d90610b039085906120e8565b908152604051908190036020019020815481546001600160a01b0319166001600160a01b0390911617815560018083015490820155600280830154908201805460ff909216151560ff199092169190911790556003808301549082015560048083018054610b749284019190611acf565b50600581810190610b8790840182612181565b505081546001600160a01b03166000908152600e6020526040812091505b8154811015610c955782600501604051602001610bc29190612262565b60405160208183030381529060405280519060200120828281548110610bea57610bea6122d8565b9060005260206000209060060201600501604051602001610c0b9190612262565b6040516020818303038152906040528051906020012003610c855782600401828281548110610c3c57610c3c6122d8565b9060005260206000209060060201600401908054610c5b929190611acf565b5082546001600160a01b03166000908152600e602052604090208254610c8391908490611b1f565b505b610c8e81612304565b9050610ba5565b50815460405133916001600160a01b0316903480156108fc02916000818181858888f19350505050158015610cce573d6000803e3d6000fd5b508254604080516001600160a01b03928316815291831660208301523482820152517f777395bdf59f3645ce2ad2d0ea17e3d827249c006023a69bb899e5c4efbcced59181900360600190a1505050610d276001600055565b50565b610d326114ec565b606060008311610d845760405162461bcd60e51b815260206004820152601c60248201527f5072696365206d757374206265206174206c656173742031207765690000000060448201526064016104d2565b60008211610dd45760405162461bcd60e51b815260206004820152601f60248201527f5175616e74697479206d7573742062652067726561746572207468616e20300060448201526064016104d2565b610ddd84610624565b1515600103610e235760405162461bcd60e51b81526020600482015260126024820152714e465420616c72656164792065786973747360701b60448201526064016104d2565b600b543414610e745760405162461bcd60e51b815260206004820181905260248201527f4e6f7420656e6f75676820657468657220666f72206c697374696e672066656560448201526064016104d2565b610e82600a80546001019055565b610e8b84611545565b506040518060c00160405280336001600160a01b0316815260200184815260200160011515815260200183815260200182815260200185815250600d85604051610ed591906120e8565b9081526040805160209281900383019020835181546001600160a01b0319166001600160a01b039091161781558383015160018201559083015160028201805460ff191691151591909117905560608301516003820155608083015180519192610f4792600485019290910190611be9565b5060a08201516005820190610f5c908261231d565b5050336000818152600e60209081526040808320815160c0810183529485528483018981526001928601838152606087018a8152608088018a815260a089018e90528454808701865594885296869020885160069095020180546001600160a01b0319166001600160a01b03909516949094178455915193830193909355915160028201805460ff19169115159190911790559051600382015591518051939450919261100f9260048501920190611be9565b5060a08201516005820190611024908261231d565b5050600c546040516001600160a01b0390911691503480156108fc02916000818181858888f19350505050158015611060573d6000803e3d6000fd5b5060408051338152602081018490529081018490527fbbf44e68296791df5535457da734bf1017c4b233a740af6d7a89b9f1af4ecb429060600160405180910390a1506105736001600055565b6001600160a01b03918216600090815260066020908152604080832093909416825291909152205460ff1690565b6000818152600360205260409020546001600160a01b0316610d275760405162461bcd60e51b8152602060048201526018602482015277115490cdcc8c4e881a5b9d985b1a59081d1bdad95b88125160421b60448201526064016104d2565b600081815260056020526040902080546001600160a01b0319166001600160a01b038416908117909155819061116f826105c4565b6001600160a01b03167f8c5be1e5ebec7d5bd14f71427d1e84f3dd0314c0f7b2291e5b200ac8c7c3b92560405160405180910390a45050565b6000806111b4836105c4565b9050806001600160a01b0316846001600160a01b031614806111db57506111db81856110ad565b806109885750836001600160a01b03166111f484610437565b6001600160a01b031614949350505050565b826001600160a01b0316611219826105c4565b6001600160a01b03161461123f5760405162461bcd60e51b81526004016104d2906123d7565b6001600160a01b0382166112a15760405162461bcd60e51b8152602060048201526024808201527f4552433732313a207472616e7366657220746f20746865207a65726f206164646044820152637265737360e01b60648201526084016104d2565b6112ae83838360016115af565b826001600160a01b03166112c1826105c4565b6001600160a01b0316146112e75760405162461bcd60e51b81526004016104d2906123d7565b600081815260056020908152604080832080546001600160a01b03199081169091556001600160a01b0387811680865260048552838620805460001901905590871680865283862080546001019055868652600390945282852080549092168417909155905184937fddf252ad1be2c89b69c2b068fc378daa952ba7f163c4a11628f55a4df523b3ef91a4505050565b816001600160a01b0316836001600160a01b0316036113d85760405162461bcd60e51b815260206004820152601960248201527f4552433732313a20617070726f766520746f2063616c6c65720000000000000060448201526064016104d2565b6001600160a01b03838116600081815260066020908152604080832094871680845294825291829020805460ff191686151590811790915591519182527f17307eab39ab6107e8899845ad3d59bd9653f200f220920489ca2b5937696c31910160405180910390a3505050565b611450848484611206565b61145c84848484611637565b61087a5760405162461bcd60e51b81526004016104d29061241c565b6060611483826110db565b600061149a60408051602081019091526000815290565b905060008151116114ba57604051806020016040528060008152506114e5565b806114c484611738565b6040516020016114d5929190612104565b6040516020818303038152906040525b9392505050565b60026000540361153e5760405162461bcd60e51b815260206004820152601f60248201527f5265656e7472616e637947756172643a207265656e7472616e742063616c6c0060448201526064016104d2565b6002600055565b6000611555600880546001019055565b600061156060085490565b905061156c33826117cb565b6115768184611964565b6040518181527fd9dc24857f317ed9abbbb42e920ede0104231eb1d3d70236a74887ffaf1598689060200160405180910390a192915050565b600181111561087a576001600160a01b038416156115f5576001600160a01b038416600090815260046020526040812080548392906115ef90849061246e565b90915550505b6001600160a01b0383161561087a576001600160a01b0383166000908152600460205260408120805483929061162c908490612481565b909155505050505050565b60006001600160a01b0384163b1561172d57604051630a85bd0160e11b81526001600160a01b0385169063150b7a029061167b903390899088908890600401612494565b6020604051808303816000875af19250505080156116b6575060408051601f3d908101601f191682019092526116b3918101906124d1565b60015b611713573d8080156116e4576040519150601f19603f3d011682016040523d82523d6000602084013e6116e9565b606091505b50805160000361170b5760405162461bcd60e51b81526004016104d29061241c565b805181602001fd5b6001600160e01b031916630a85bd0160e11b149050610988565b506001949350505050565b60606000611745836119f7565b600101905060008167ffffffffffffffff81111561176557611765611e32565b6040519080825280601f01601f19166020018201604052801561178f576020820181803683370190505b5090508181016020015b600019016f181899199a1a9b1b9c1cb0b131b232b360811b600a86061a8153600a850494508461179957509392505050565b6001600160a01b0382166118215760405162461bcd60e51b815260206004820181905260248201527f4552433732313a206d696e7420746f20746865207a65726f206164647265737360448201526064016104d2565b6000818152600360205260409020546001600160a01b0316156118865760405162461bcd60e51b815260206004820152601c60248201527f4552433732313a20746f6b656e20616c7265616479206d696e7465640000000060448201526064016104d2565b6118946000838360016115af565b6000818152600360205260409020546001600160a01b0316156118f95760405162461bcd60e51b815260206004820152601c60248201527f4552433732313a20746f6b656e20616c7265616479206d696e7465640000000060448201526064016104d2565b6001600160a01b038216600081815260046020908152604080832080546001019055848352600390915280822080546001600160a01b0319168417905551839291907fddf252ad1be2c89b69c2b068fc378daa952ba7f163c4a11628f55a4df523b3ef908290a45050565b6000828152600360205260409020546001600160a01b03166119df5760405162461bcd60e51b815260206004820152602e60248201527f45524337323155524953746f726167653a2055524920736574206f66206e6f6e60448201526d32bc34b9ba32b73a103a37b5b2b760911b60648201526084016104d2565b6000828152600760205260409020610573828261231d565b60008072184f03e93ff9f4daa797ed6e38ed64bf6a1f0160401b8310611a365772184f03e93ff9f4daa797ed6e38ed64bf6a1f0160401b830492506040015b6d04ee2d6d415b85acef81000000008310611a62576d04ee2d6d415b85acef8100000000830492506020015b662386f26fc100008310611a8057662386f26fc10000830492506010015b6305f5e1008310611a98576305f5e100830492506008015b6127108310611aac57612710830492506004015b60648310611abe576064830492506002015b600a831061039f5760010192915050565b828054828255906000526020600020908101928215611b0f5760005260206000209182015b82811115611b0f578254825591600101919060010190611af4565b50611b1b929150611c3e565b5090565b828054828255906000526020600020906006028101928215611bdd5760005260206000209160060282015b82811115611bdd57825482546001600160a01b0319166001600160a01b0390911617825560018084015490830155600280840154908301805460ff909216151560ff19909216919091179055600380840154908301556004808401805485928592611bb89291840191611acf565b50600581810190611bcb90840182612181565b50505091600601919060060190611b4a565b50611b1b929150611c53565b828054828255906000526020600020908101928215611b0f579160200282015b82811115611b0f57825182546001600160a01b0319166001600160a01b03909116178255602090920191600190910190611c09565b5b80821115611b1b5760008155600101611c3f565b80821115611b1b5780546001600160a01b031916815560006001820181905560028201805460ff1916905560038201819055611c926004830182611ca9565b611ca0600583016000611cc7565b50600601611c53565b5080546000825590600052602060002090810190610d279190611c3e565b508054611cd390612067565b6000825580601f10611ce3575050565b601f016020900490600052602060002090810190610d279190611c3e565b6001600160e01b031981168114610d2757600080fd5b600060208284031215611d2957600080fd5b81356114e581611d01565b60005b83811015611d4f578181015183820152602001611d37565b50506000910152565b60008151808452611d70816020860160208601611d34565b601f01601f19169290920160200192915050565b6020815260006114e56020830184611d58565b600060208284031215611da957600080fd5b5035919050565b80356001600160a01b0381168114611dc757600080fd5b919050565b60008060408385031215611ddf57600080fd5b611de883611db0565b946020939093013593505050565b600080600060608486031215611e0b57600080fd5b611e1484611db0565b9250611e2260208501611db0565b9150604084013590509250925092565b634e487b7160e01b600052604160045260246000fd5b600067ffffffffffffffff80841115611e6357611e63611e32565b604051601f8501601f19908116603f01168101908282118183101715611e8b57611e8b611e32565b81604052809350858152868686011115611ea457600080fd5b858560208301376000602087830101525050509392505050565b600082601f830112611ecf57600080fd5b6114e583833560208501611e48565b600060208284031215611ef057600080fd5b813567ffffffffffffffff811115611f0757600080fd5b61098884828501611ebe565b600060208284031215611f2557600080fd5b6114e582611db0565b60008060408385031215611f4157600080fd5b611f4a83611db0565b915060208301358015158114611f5f57600080fd5b809150509250929050565b60008060008060808587031215611f8057600080fd5b611f8985611db0565b9350611f9760208601611db0565b925060408501359150606085013567ffffffffffffffff811115611fba57600080fd5b8501601f81018713611fcb57600080fd5b611fda87823560208401611e48565b91505092959194509250565b600080600060608486031215611ffb57600080fd5b833567ffffffffffffffff81111561201257600080fd5b61201e86828701611ebe565b9660208601359650604090950135949350505050565b6000806040838503121561204757600080fd5b61205083611db0565b915061205e60208401611db0565b90509250929050565b600181811c9082168061207b57607f821691505b60208210810361079e57634e487b7160e01b600052602260045260246000fd5b6020808252602d908201527f4552433732313a2063616c6c6572206973206e6f7420746f6b656e206f776e6560408201526c1c881bdc88185c1c1c9bdd9959609a1b606082015260800190565b600082516120fa818460208701611d34565b9190910192915050565b60008351612116818460208801611d34565b83519083019061212a818360208801611d34565b01949350505050565b601f82111561057357600081815260208120601f850160051c8101602086101561215a5750805b601f850160051c820191505b8181101561217957828155600101612166565b505050505050565b81810361218c575050565b6121968254612067565b67ffffffffffffffff8111156121ae576121ae611e32565b6121c2816121bc8454612067565b84612133565b6000601f8211600181146121f657600083156121de5750848201545b600019600385901b1c1916600184901b17845561225b565b600085815260209020601f19841690600086815260209020845b838110156122305782860154825560019586019590910190602001612210565b508583101561224e5781850154600019600388901b60f8161c191681555b50505060018360011b0184555b5050505050565b600080835461227081612067565b60018281168015612288576001811461229d576122cc565b60ff19841687528215158302870194506122cc565b8760005260208060002060005b858110156122c35781548a8201529084019082016122aa565b50505082870194505b50929695505050505050565b634e487b7160e01b600052603260045260246000fd5b634e487b7160e01b600052601160045260246000fd5b600060018201612316576123166122ee565b5060010190565b815167ffffffffffffffff81111561233757612337611e32565b612345816121bc8454612067565b602080601f83116001811461237a57600084156123625750858301515b600019600386901b1c1916600185901b178555612179565b600085815260208120601f198616915b828110156123a95788860151825594840194600190910190840161238a565b50858210156123c75787850151600019600388901b60f8161c191681555b5050505050600190811b01905550565b60208082526025908201527f4552433732313a207472616e736665722066726f6d20696e636f72726563742060408201526437bbb732b960d91b606082015260800190565b60208082526032908201527f4552433732313a207472616e7366657220746f206e6f6e20455243373231526560408201527131b2b4bb32b91034b6b83632b6b2b73a32b960711b606082015260800190565b8181038181111561039f5761039f6122ee565b8082018082111561039f5761039f6122ee565b6001600160a01b03858116825284166020820152604081018390526080606082018190526000906124c790830184611d58565b9695505050505050565b6000602082840312156124e357600080fd5b81516114e581611d0156fea2646970667358221220ad1c2e1727371b13a40d0fc80a103577e0cf5d4b1a055095bf58a2f5eb66972564736f6c63430008110033",
  "linkReferences": {},
  "deployedLinkReferences": {}
}