{
  "_format": "hh-sol-artifact-1",
  "contractName": "Marketplace",
  "sourceName": "contracts/Marketplace.sol",
  "abi": [
    {
      "inputs": [],
      "stateMutability": "nonpayable",
      "type": "constructor"
    },
    {
      "anonymous": false,
      "inputs": [
        {
          "indexed": true,
          "internalType": "address",
          "name": "owner",
          "type": "address"
        },
        {
          "indexed": true,
          "internalType": "address",
          "name": "approved",
          "type": "address"
        },
        {
          "indexed": true,
          "internalType": "uint256",
          "name": "tokenId",
          "type": "uint256"
        }
      ],
      "name": "Approval",
      "type": "event"
    },
    {
      "anonymous": false,
      "inputs": [
        {
          "indexed": true,
          "internalType": "address",
          "name": "owner",
          "type": "address"
        },
        {
          "indexed": true,
          "internalType": "address",
          "name": "operator",
          "type": "address"
        },
        {
          "indexed": false,
          "internalType": "bool",
          "name": "approved",
          "type": "bool"
        }
      ],
      "name": "ApprovalForAll",
      "type": "event"
    },
    {
      "anonymous": false,
      "inputs": [
        {
          "indexed": false,
          "internalType": "address",
          "name": "seller",
          "type": "address"
        },
        {
          "indexed": false,
          "internalType": "uint256",
          "name": "quantity",
          "type": "uint256"
        },
        {
          "indexed": false,
          "internalType": "uint256",
          "name": "price",
          "type": "uint256"
        }
      ],
      "name": "NFTListed",
      "type": "event"
    },
    {
      "anonymous": false,
      "inputs": [
        {
          "indexed": false,
          "internalType": "uint256",
          "name": "_id",
          "type": "uint256"
        }
      ],
      "name": "NFTMinted",
      "type": "event"
    },
    {
      "anonymous": false,
      "inputs": [
        {
          "indexed": false,
          "internalType": "address",
          "name": "seller",
          "type": "address"
        },
        {
          "indexed": false,
          "internalType": "address",
          "name": "buyer",
          "type": "address"
        },
        {
          "indexed": false,
          "internalType": "uint256",
          "name": "price",
          "type": "uint256"
        }
      ],
      "name": "NFTSold",
      "type": "event"
    },
    {
      "anonymous": false,
      "inputs": [
        {
          "indexed": true,
          "internalType": "address",
          "name": "from",
          "type": "address"
        },
        {
          "indexed": true,
          "internalType": "address",
          "name": "to",
          "type": "address"
        },
        {
          "indexed": true,
          "internalType": "uint256",
          "name": "tokenId",
          "type": "uint256"
        }
      ],
      "name": "Transfer",
      "type": "event"
    },
    {
      "inputs": [],
      "name": "LISTING_FEE",
      "outputs": [
        {
          "internalType": "uint256",
          "name": "",
          "type": "uint256"
        }
      ],
      "stateMutability": "view",
      "type": "function"
    },
    {
      "inputs": [
        {
          "internalType": "string",
          "name": "",
          "type": "string"
        }
      ],
      "name": "_idToNFT",
      "outputs": [
        {
          "internalType": "address payable",
          "name": "seller",
          "type": "address"
        },
        {
          "internalType": "uint256",
          "name": "price",
          "type": "uint256"
        },
        {
          "internalType": "bool",
          "name": "listed",
          "type": "bool"
        },
        {
          "internalType": "uint256",
          "name": "quantity",
          "type": "uint256"
        },
        {
          "internalType": "string",
          "name": "tokenId",
          "type": "string"
        }
      ],
      "stateMutability": "view",
      "type": "function"
    },
    {
      "inputs": [
        {
          "internalType": "address",
          "name": "to",
          "type": "address"
        },
        {
          "internalType": "uint256",
          "name": "tokenId",
          "type": "uint256"
        }
      ],
      "name": "approve",
      "outputs": [],
      "stateMutability": "nonpayable",
      "type": "function"
    },
    {
      "inputs": [
        {
          "internalType": "address",
          "name": "",
          "type": "address"
        },
        {
          "internalType": "uint256",
          "name": "",
          "type": "uint256"
        }
      ],
      "name": "authorStore",
      "outputs": [
        {
          "internalType": "address payable",
          "name": "seller",
          "type": "address"
        },
        {
          "internalType": "uint256",
          "name": "price",
          "type": "uint256"
        },
        {
          "internalType": "bool",
          "name": "listed",
          "type": "bool"
        },
        {
          "internalType": "uint256",
          "name": "quantity",
          "type": "uint256"
        },
        {
          "internalType": "string",
          "name": "tokenId",
          "type": "string"
        }
      ],
      "stateMutability": "view",
      "type": "function"
    },
    {
      "inputs": [
        {
          "internalType": "address",
          "name": "owner",
          "type": "address"
        }
      ],
      "name": "balanceOf",
      "outputs": [
        {
          "internalType": "uint256",
          "name": "",
          "type": "uint256"
        }
      ],
      "stateMutability": "view",
      "type": "function"
    },
    {
      "inputs": [
        {
          "internalType": "string",
          "name": "_tokenUri",
          "type": "string"
        }
      ],
      "name": "buyNft",
      "outputs": [],
      "stateMutability": "payable",
      "type": "function"
    },
    {
      "inputs": [
        {
          "internalType": "uint256",
          "name": "tokenId",
          "type": "uint256"
        }
      ],
      "name": "getApproved",
      "outputs": [
        {
          "internalType": "address",
          "name": "",
          "type": "address"
        }
      ],
      "stateMutability": "view",
      "type": "function"
    },
    {
      "inputs": [],
      "name": "getListingFee",
      "outputs": [
        {
          "internalType": "uint256",
          "name": "",
          "type": "uint256"
        }
      ],
      "stateMutability": "view",
      "type": "function"
    },
    {
      "inputs": [
        {
          "internalType": "string",
          "name": "_tokenUri",
          "type": "string"
        }
      ],
      "name": "getNftOwners",
      "outputs": [
        {
          "internalType": "address[]",
          "name": "",
          "type": "address[]"
        }
      ],
      "stateMutability": "view",
      "type": "function"
    },
    {
      "inputs": [
        {
          "internalType": "address",
          "name": "owner",
          "type": "address"
        },
        {
          "internalType": "address",
          "name": "operator",
          "type": "address"
        }
      ],
      "name": "isApprovedForAll",
      "outputs": [
        {
          "internalType": "bool",
          "name": "",
          "type": "bool"
        }
      ],
      "stateMutability": "view",
      "type": "function"
    },
    {
      "inputs": [
        {
          "internalType": "string",
          "name": "_tokenUri",
          "type": "string"
        },
        {
          "internalType": "uint256",
          "name": "_price",
          "type": "uint256"
        },
        {
          "internalType": "uint256",
          "name": "_quantity",
          "type": "uint256"
        }
      ],
      "name": "listNft",
      "outputs": [],
      "stateMutability": "payable",
      "type": "function"
    },
    {
      "inputs": [],
      "name": "name",
      "outputs": [
        {
          "internalType": "string",
          "name": "",
          "type": "string"
        }
      ],
      "stateMutability": "view",
      "type": "function"
    },
    {
      "inputs": [
        {
          "internalType": "string",
          "name": "_tokenUri",
          "type": "string"
        }
      ],
      "name": "nftExists",
      "outputs": [
        {
          "internalType": "bool",
          "name": "",
          "type": "bool"
        }
      ],
      "stateMutability": "view",
      "type": "function"
    },
    {
      "inputs": [
        {
          "internalType": "uint256",
          "name": "tokenId",
          "type": "uint256"
        }
      ],
      "name": "ownerOf",
      "outputs": [
        {
          "internalType": "address",
          "name": "",
          "type": "address"
        }
      ],
      "stateMutability": "view",
      "type": "function"
    },
    {
      "inputs": [
        {
          "internalType": "address",
          "name": "from",
          "type": "address"
        },
        {
          "internalType": "address",
          "name": "to",
          "type": "address"
        },
        {
          "internalType": "uint256",
          "name": "tokenId",
          "type": "uint256"
        }
      ],
      "name": "safeTransferFrom",
      "outputs": [],
      "stateMutability": "nonpayable",
      "type": "function"
    },
    {
      "inputs": [
        {
          "internalType": "address",
          "name": "from",
          "type": "address"
        },
        {
          "internalType": "address",
          "name": "to",
          "type": "address"
        },
        {
          "internalType": "uint256",
          "name": "tokenId",
          "type": "uint256"
        },
        {
          "internalType": "bytes",
          "name": "data",
          "type": "bytes"
        }
      ],
      "name": "safeTransferFrom",
      "outputs": [],
      "stateMutability": "nonpayable",
      "type": "function"
    },
    {
      "inputs": [
        {
          "internalType": "address",
          "name": "operator",
          "type": "address"
        },
        {
          "internalType": "bool",
          "name": "approved",
          "type": "bool"
        }
      ],
      "name": "setApprovalForAll",
      "outputs": [],
      "stateMutability": "nonpayable",
      "type": "function"
    },
    {
      "inputs": [
        {
          "internalType": "bytes4",
          "name": "interfaceId",
          "type": "bytes4"
        }
      ],
      "name": "supportsInterface",
      "outputs": [
        {
          "internalType": "bool",
          "name": "",
          "type": "bool"
        }
      ],
      "stateMutability": "view",
      "type": "function"
    },
    {
      "inputs": [],
      "name": "symbol",
      "outputs": [
        {
          "internalType": "string",
          "name": "",
          "type": "string"
        }
      ],
      "stateMutability": "view",
      "type": "function"
    },
    {
      "inputs": [
        {
          "internalType": "uint256",
          "name": "tokenId",
          "type": "uint256"
        }
      ],
      "name": "tokenURI",
      "outputs": [
        {
          "internalType": "string",
          "name": "",
          "type": "string"
        }
      ],
      "stateMutability": "view",
      "type": "function"
    },
    {
      "inputs": [
        {
          "internalType": "address",
          "name": "from",
          "type": "address"
        },
        {
          "internalType": "address",
          "name": "to",
          "type": "address"
        },
        {
          "internalType": "uint256",
          "name": "tokenId",
          "type": "uint256"
        }
      ],
      "name": "transferFrom",
      "outputs": [],
      "stateMutability": "nonpayable",
      "type": "function"
    }
  ],
  "bytecode": "0x6080604052655af3107a4000600b553480156200001b57600080fd5b50604051806040016040528060098152602001682137b7b5a1b7bb32b960b91b8152506040518060400160405280600381526020016244424360e81b8152506001600081905550816001908162000073919062000152565b50600262000082828262000152565b505060098054336001600160a01b03199182168117909255600c80549091169091179055506200021e565b634e487b7160e01b600052604160045260246000fd5b600181811c90821680620000d857607f821691505b602082108103620000f957634e487b7160e01b600052602260045260246000fd5b50919050565b601f8211156200014d57600081815260208120601f850160051c81016020861015620001285750805b601f850160051c820191505b81811015620001495782815560010162000134565b5050505b505050565b81516001600160401b038111156200016e576200016e620000ad565b62000186816200017f8454620000c3565b84620000ff565b602080601f831160018114620001be5760008415620001a55750858301515b600019600386901b1c1916600185901b17855562000149565b600085815260208120601f198616915b82811015620001ef57888601518255948401946001909101908401620001ce565b50858210156200020e5787850151600019600388901b60f8161c191681555b5050505050600190811b01905550565b612931806200022e6000396000f3fe60806040526004361061012a5760003560e01c806365c4b8fd116100ab578063b88d4fde1161006f578063b88d4fde14610357578063b8fe6abe14610377578063c87b56dd1461038c578063d5efffaf146103ac578063e1a74241146103bf578063e985e9c5146103d257600080fd5b806365c4b8fd146102c257806370a08231146102e257806395d89b4114610302578063a22cb46514610317578063a7d58dc31461033757600080fd5b806323b872dd116100f257806323b872dd1461020d5780632b86ae381461022d5780632f3bdafd1461025157806342842e0e146102825780636352211e146102a257600080fd5b806301ffc9a71461012f57806306fdde0314610164578063081812fc14610186578063095ea7b3146101be57806319292496146101e0575b600080fd5b34801561013b57600080fd5b5061014f61014a366004612097565b6103f2565b60405190151581526020015b60405180910390f35b34801561017057600080fd5b50610179610444565b60405161015b9190612104565b34801561019257600080fd5b506101a66101a1366004612117565b6104d6565b6040516001600160a01b03909116815260200161015b565b3480156101ca57600080fd5b506101de6101d936600461214c565b6104fd565b005b3480156101ec57600080fd5b506102006101fb366004612222565b610617565b60405161015b9190612257565b34801561021957600080fd5b506101de6102283660046122a4565b6107bf565b34801561023957600080fd5b50610243600b5481565b60405190815260200161015b565b34801561025d57600080fd5b5061027161026c366004612222565b6107f0565b60405161015b9594939291906122e0565b34801561028e57600080fd5b506101de61029d3660046122a4565b6108c2565b3480156102ae57600080fd5b506101a66102bd366004612117565b6108dd565b3480156102ce57600080fd5b5061014f6102dd366004612222565b61093d565b3480156102ee57600080fd5b506102436102fd366004612320565b610abd565b34801561030e57600080fd5b50610179610b43565b34801561032357600080fd5b506101de61033236600461233b565b610b52565b34801561034357600080fd5b5061027161035236600461214c565b610b61565b34801561036357600080fd5b506101de610372366004612377565b610bc8565b34801561038357600080fd5b50600b54610243565b34801561039857600080fd5b506101796103a7366004612117565b610c00565b6101de6103ba366004612222565b610d10565b6101de6103cd3660046123f3565b6110aa565b3480156103de57600080fd5b5061014f6103ed366004612441565b61142d565b60006001600160e01b031982166380ac58cd60e01b148061042357506001600160e01b03198216635b5e139f60e01b145b8061043e57506301ffc9a760e01b6001600160e01b03198316145b92915050565b60606001805461045390612474565b80601f016020809104026020016040519081016040528092919081815260200182805461047f90612474565b80156104cc5780601f106104a1576101008083540402835291602001916104cc565b820191906000526020600020905b8154815290600101906020018083116104af57829003601f168201915b5050505050905090565b60006104e18261145b565b506000908152600560205260409020546001600160a01b031690565b6000610508826108dd565b9050806001600160a01b0316836001600160a01b03160361057a5760405162461bcd60e51b815260206004820152602160248201527f4552433732313a20617070726f76616c20746f2063757272656e74206f776e656044820152603960f91b60648201526084015b60405180910390fd5b336001600160a01b03821614806105965750610596813361142d565b6106085760405162461bcd60e51b815260206004820152603d60248201527f4552433732313a20617070726f76652063616c6c6572206973206e6f7420746f60448201527f6b656e206f776e6572206f7220617070726f76656420666f7220616c6c0000006064820152608401610571565b61061283836114ba565b505050565b60606106228261093d565b15156001146106685760405162461bcd60e51b815260206004820152601260248201527113919508191bd95cc81b9bdd08195e1a5cdd60721b6044820152606401610571565b6000600d8360405161067a91906124a8565b90815260408051918290036020908101832060c08401835280546001600160a01b03168452600181015484830152600281015460ff16151584840152600381015460608501526004810180548451818502810185019095528085529193608086019390929083018282801561071857602002820191906000526020600020905b81546001600160a01b031681526001909101906020018083116106fa575b5050505050815260200160058201805461073190612474565b80601f016020809104026020016040519081016040528092919081815260200182805461075d90612474565b80156107aa5780601f1061077f576101008083540402835291602001916107aa565b820191906000526020600020905b81548152906001019060200180831161078d57829003601f168201915b50505091909252505050608001519392505050565b6107c93382611528565b6107e55760405162461bcd60e51b8152600401610571906124c4565b610612838383611586565b8051602081830181018051600d82529282019190930120915280546001820154600283015460038401546005850180546001600160a01b0390951695939460ff90931693919261083f90612474565b80601f016020809104026020016040519081016040528092919081815260200182805461086b90612474565b80156108b85780601f1061088d576101008083540402835291602001916108b8565b820191906000526020600020905b81548152906001019060200180831161089b57829003601f168201915b5050505050905085565b61061283838360405180602001604052806000815250610bc8565b6000818152600360205260408120546001600160a01b03168061043e5760405162461bcd60e51b8152602060048201526018602482015277115490cdcc8c4e881a5b9d985b1a59081d1bdad95b88125160421b6044820152606401610571565b600080600d8360405161095091906124a8565b90815260408051918290036020908101832060c08401835280546001600160a01b03168452600181015484830152600281015460ff1615158484015260038101546060850152600481018054845181850281018501909552808552919360808601939092908301828280156109ee57602002820191906000526020600020905b81546001600160a01b031681526001909101906020018083116109d0575b50505050508152602001600582018054610a0790612474565b80601f0160208091040260200160405190810160405280929190818152602001828054610a3390612474565b8015610a805780601f10610a5557610100808354040283529160200191610a80565b820191906000526020600020905b815481529060010190602001808311610a6357829003601f168201915b5050505050815250509050806020015160001480610aa057506060810151155b15610aae5750600092915050565b50600192915050565b50919050565b60006001600160a01b038216610b275760405162461bcd60e51b815260206004820152602960248201527f4552433732313a2061646472657373207a65726f206973206e6f7420612076616044820152683634b21037bbb732b960b91b6064820152608401610571565b506001600160a01b031660009081526004602052604090205490565b60606002805461045390612474565b610b5d3383836116f7565b5050565b600e6020528160005260406000208181548110610b7d57600080fd5b6000918252602090912060069091020180546001820154600283015460038401546005850180546001600160a01b03909516975092955060ff90911693909290919061083f90612474565b610bd23383611528565b610bee5760405162461bcd60e51b8152600401610571906124c4565b610bfa848484846117c5565b50505050565b6060610c0b8261145b565b60008281526007602052604081208054610c2490612474565b80601f0160208091040260200160405190810160405280929190818152602001828054610c5090612474565b8015610c9d5780601f10610c7257610100808354040283529160200191610c9d565b820191906000526020600020905b815481529060010190602001808311610c8057829003601f168201915b505050505090506000610cbb60408051602081019091526000815290565b90508051600003610ccd575092915050565b815115610cff578082604051602001610ce7929190612511565b60405160208183030381529060405292505050919050565b610d08846117f8565b949350505050565b610d1861186c565b6000600d82604051610d2a91906124a8565b90815260200160405180910390209050610d438261093d565b1515600114610d895760405162461bcd60e51b815260206004820152601260248201527113919508191bd95cc81b9bdd08195e1a5cdd60721b6044820152606401610571565b80600101543414610df75760405162461bcd60e51b815260206004820152603260248201527f4e6f7420656e6f756768206f7220746f6f206d75636820657468657220746f20604482015271636f7665722061736b696e6720707269636560701b6064820152608401610571565b6003810154600482015410610e3f5760405162461bcd60e51b815260206004820152600e60248201526d1391951cc81b585e1959081bdd5d60921b6044820152606401610571565b610e48826118c5565b50600481018054600181018255600091825260209091200180546001600160a01b031916331790556040518190600d90610e839085906124a8565b908152604051908190036020019020815481546001600160a01b0319166001600160a01b0390911617815560018083015490820155600280830154908201805460ff909216151560ff199092169190911790556003808301549082015560048083018054610ef49284019190611e4f565b50600581810190610f079084018261258e565b505081546001600160a01b03166000908152600e6020526040812091505b81548110156110155782600501604051602001610f42919061266f565b60405160208183030381529060405280519060200120828281548110610f6a57610f6a6126e5565b9060005260206000209060060201600501604051602001610f8b919061266f565b60405160208183030381529060405280519060200120036110055782600401828281548110610fbc57610fbc6126e5565b9060005260206000209060060201600401908054610fdb929190611e4f565b5082546001600160a01b03166000908152600e60205260409020825461100391908490611e9f565b505b61100e81612711565b9050610f25565b50815460405133916001600160a01b0316903480156108fc02916000818181858888f1935050505015801561104e573d6000803e3d6000fd5b508254604080516001600160a01b03928316815291831660208301523482820152517f777395bdf59f3645ce2ad2d0ea17e3d827249c006023a69bb899e5c4efbcced59181900360600190a15050506110a76001600055565b50565b6110b261186c565b6060600083116111045760405162461bcd60e51b815260206004820152601c60248201527f5072696365206d757374206265206174206c65617374203120776569000000006044820152606401610571565b600082116111545760405162461bcd60e51b815260206004820152601f60248201527f5175616e74697479206d7573742062652067726561746572207468616e2030006044820152606401610571565b61115d8461093d565b15156001036111a35760405162461bcd60e51b81526020600482015260126024820152714e465420616c72656164792065786973747360701b6044820152606401610571565b600b5434146111f45760405162461bcd60e51b815260206004820181905260248201527f4e6f7420656e6f75676820657468657220666f72206c697374696e67206665656044820152606401610571565b611202600a80546001019055565b61120b846118c5565b506040518060c00160405280336001600160a01b0316815260200184815260200160011515815260200183815260200182815260200185815250600d8560405161125591906124a8565b9081526040805160209281900383019020835181546001600160a01b0319166001600160a01b039091161781558383015160018201559083015160028201805460ff1916911515919091179055606083015160038201556080830151805191926112c792600485019290910190611f69565b5060a082015160058201906112dc908261272a565b5050336000818152600e60209081526040808320815160c0810183529485528483018981526001928601838152606087018a8152608088018a815260a089018e90528454808701865594885296869020885160069095020180546001600160a01b0319166001600160a01b03909516949094178455915193830193909355915160028201805460ff19169115159190911790559051600382015591518051939450919261138f9260048501920190611f69565b5060a082015160058201906113a4908261272a565b5050600c546040516001600160a01b0390911691503480156108fc02916000818181858888f193505050501580156113e0573d6000803e3d6000fd5b5060408051338152602081018490529081018490527fbbf44e68296791df5535457da734bf1017c4b233a740af6d7a89b9f1af4ecb429060600160405180910390a1506106126001600055565b6001600160a01b03918216600090815260066020908152604080832093909416825291909152205460ff1690565b6000818152600360205260409020546001600160a01b03166110a75760405162461bcd60e51b8152602060048201526018602482015277115490cdcc8c4e881a5b9d985b1a59081d1bdad95b88125160421b6044820152606401610571565b600081815260056020526040902080546001600160a01b0319166001600160a01b03841690811790915581906114ef826108dd565b6001600160a01b03167f8c5be1e5ebec7d5bd14f71427d1e84f3dd0314c0f7b2291e5b200ac8c7c3b92560405160405180910390a45050565b600080611534836108dd565b9050806001600160a01b0316846001600160a01b0316148061155b575061155b818561142d565b80610d085750836001600160a01b0316611574846104d6565b6001600160a01b031614949350505050565b826001600160a01b0316611599826108dd565b6001600160a01b0316146115bf5760405162461bcd60e51b8152600401610571906127e4565b6001600160a01b0382166116215760405162461bcd60e51b8152602060048201526024808201527f4552433732313a207472616e7366657220746f20746865207a65726f206164646044820152637265737360e01b6064820152608401610571565b61162e838383600161192f565b826001600160a01b0316611641826108dd565b6001600160a01b0316146116675760405162461bcd60e51b8152600401610571906127e4565b600081815260056020908152604080832080546001600160a01b03199081169091556001600160a01b0387811680865260048552838620805460001901905590871680865283862080546001019055868652600390945282852080549092168417909155905184937fddf252ad1be2c89b69c2b068fc378daa952ba7f163c4a11628f55a4df523b3ef91a4505050565b816001600160a01b0316836001600160a01b0316036117585760405162461bcd60e51b815260206004820152601960248201527f4552433732313a20617070726f766520746f2063616c6c6572000000000000006044820152606401610571565b6001600160a01b03838116600081815260066020908152604080832094871680845294825291829020805460ff191686151590811790915591519182527f17307eab39ab6107e8899845ad3d59bd9653f200f220920489ca2b5937696c31910160405180910390a3505050565b6117d0848484611586565b6117dc848484846119b7565b610bfa5760405162461bcd60e51b815260040161057190612829565b60606118038261145b565b600061181a60408051602081019091526000815290565b9050600081511161183a5760405180602001604052806000815250611865565b8061184484611ab8565b604051602001611855929190612511565b6040516020818303038152906040525b9392505050565b6002600054036118be5760405162461bcd60e51b815260206004820152601f60248201527f5265656e7472616e637947756172643a207265656e7472616e742063616c6c006044820152606401610571565b6002600055565b60006118d5600880546001019055565b60006118e060085490565b90506118ec3382611b4b565b6118f68184611ce4565b6040518181527fd9dc24857f317ed9abbbb42e920ede0104231eb1d3d70236a74887ffaf1598689060200160405180910390a192915050565b6001811115610bfa576001600160a01b03841615611975576001600160a01b0384166000908152600460205260408120805483929061196f90849061287b565b90915550505b6001600160a01b03831615610bfa576001600160a01b038316600090815260046020526040812080548392906119ac90849061288e565b909155505050505050565b60006001600160a01b0384163b15611aad57604051630a85bd0160e11b81526001600160a01b0385169063150b7a02906119fb9033908990889088906004016128a1565b6020604051808303816000875af1925050508015611a36575060408051601f3d908101601f19168201909252611a33918101906128de565b60015b611a93573d808015611a64576040519150601f19603f3d011682016040523d82523d6000602084013e611a69565b606091505b508051600003611a8b5760405162461bcd60e51b815260040161057190612829565b805181602001fd5b6001600160e01b031916630a85bd0160e11b149050610d08565b506001949350505050565b60606000611ac583611d77565b600101905060008167ffffffffffffffff811115611ae557611ae5612176565b6040519080825280601f01601f191660200182016040528015611b0f576020820181803683370190505b5090508181016020015b600019016f181899199a1a9b1b9c1cb0b131b232b360811b600a86061a8153600a8504945084611b1957509392505050565b6001600160a01b038216611ba15760405162461bcd60e51b815260206004820181905260248201527f4552433732313a206d696e7420746f20746865207a65726f20616464726573736044820152606401610571565b6000818152600360205260409020546001600160a01b031615611c065760405162461bcd60e51b815260206004820152601c60248201527f4552433732313a20746f6b656e20616c7265616479206d696e746564000000006044820152606401610571565b611c1460008383600161192f565b6000818152600360205260409020546001600160a01b031615611c795760405162461bcd60e51b815260206004820152601c60248201527f4552433732313a20746f6b656e20616c7265616479206d696e746564000000006044820152606401610571565b6001600160a01b038216600081815260046020908152604080832080546001019055848352600390915280822080546001600160a01b0319168417905551839291907fddf252ad1be2c89b69c2b068fc378daa952ba7f163c4a11628f55a4df523b3ef908290a45050565b6000828152600360205260409020546001600160a01b0316611d5f5760405162461bcd60e51b815260206004820152602e60248201527f45524337323155524953746f726167653a2055524920736574206f66206e6f6e60448201526d32bc34b9ba32b73a103a37b5b2b760911b6064820152608401610571565b6000828152600760205260409020610612828261272a565b60008072184f03e93ff9f4daa797ed6e38ed64bf6a1f0160401b8310611db65772184f03e93ff9f4daa797ed6e38ed64bf6a1f0160401b830492506040015b6d04ee2d6d415b85acef81000000008310611de2576d04ee2d6d415b85acef8100000000830492506020015b662386f26fc100008310611e0057662386f26fc10000830492506010015b6305f5e1008310611e18576305f5e100830492506008015b6127108310611e2c57612710830492506004015b60648310611e3e576064830492506002015b600a831061043e5760010192915050565b828054828255906000526020600020908101928215611e8f5760005260206000209182015b82811115611e8f578254825591600101919060010190611e74565b50611e9b929150611fbe565b5090565b828054828255906000526020600020906006028101928215611f5d5760005260206000209160060282015b82811115611f5d57825482546001600160a01b0319166001600160a01b0390911617825560018084015490830155600280840154908301805460ff909216151560ff19909216919091179055600380840154908301556004808401805485928592611f389291840191611e4f565b50600581810190611f4b9084018261258e565b50505091600601919060060190611eca565b50611e9b929150611fd3565b828054828255906000526020600020908101928215611e8f579160200282015b82811115611e8f57825182546001600160a01b0319166001600160a01b03909116178255602090920191600190910190611f89565b5b80821115611e9b5760008155600101611fbf565b80821115611e9b5780546001600160a01b031916815560006001820181905560028201805460ff19169055600382018190556120126004830182612029565b612020600583016000612047565b50600601611fd3565b50805460008255906000526020600020908101906110a79190611fbe565b50805461205390612474565b6000825580601f10612063575050565b601f0160209004906000526020600020908101906110a79190611fbe565b6001600160e01b0319811681146110a757600080fd5b6000602082840312156120a957600080fd5b813561186581612081565b60005b838110156120cf5781810151838201526020016120b7565b50506000910152565b600081518084526120f08160208601602086016120b4565b601f01601f19169290920160200192915050565b60208152600061186560208301846120d8565b60006020828403121561212957600080fd5b5035919050565b80356001600160a01b038116811461214757600080fd5b919050565b6000806040838503121561215f57600080fd5b61216883612130565b946020939093013593505050565b634e487b7160e01b600052604160045260246000fd5b600067ffffffffffffffff808411156121a7576121a7612176565b604051601f8501601f19908116603f011681019082821181831017156121cf576121cf612176565b816040528093508581528686860111156121e857600080fd5b858560208301376000602087830101525050509392505050565b600082601f83011261221357600080fd5b6118658383356020850161218c565b60006020828403121561223457600080fd5b813567ffffffffffffffff81111561224b57600080fd5b610d0884828501612202565b6020808252825182820181905260009190848201906040850190845b818110156122985783516001600160a01b031683529284019291840191600101612273565b50909695505050505050565b6000806000606084860312156122b957600080fd5b6122c284612130565b92506122d060208501612130565b9150604084013590509250925092565b60018060a01b0386168152846020820152831515604082015282606082015260a06080820152600061231560a08301846120d8565b979650505050505050565b60006020828403121561233257600080fd5b61186582612130565b6000806040838503121561234e57600080fd5b61235783612130565b91506020830135801515811461236c57600080fd5b809150509250929050565b6000806000806080858703121561238d57600080fd5b61239685612130565b93506123a460208601612130565b925060408501359150606085013567ffffffffffffffff8111156123c757600080fd5b8501601f810187136123d857600080fd5b6123e78782356020840161218c565b91505092959194509250565b60008060006060848603121561240857600080fd5b833567ffffffffffffffff81111561241f57600080fd5b61242b86828701612202565b9660208601359650604090950135949350505050565b6000806040838503121561245457600080fd5b61245d83612130565b915061246b60208401612130565b90509250929050565b600181811c9082168061248857607f821691505b602082108103610ab757634e487b7160e01b600052602260045260246000fd5b600082516124ba8184602087016120b4565b9190910192915050565b6020808252602d908201527f4552433732313a2063616c6c6572206973206e6f7420746f6b656e206f776e6560408201526c1c881bdc88185c1c1c9bdd9959609a1b606082015260800190565b600083516125238184602088016120b4565b8351908301906125378183602088016120b4565b01949350505050565b601f82111561061257600081815260208120601f850160051c810160208610156125675750805b601f850160051c820191505b8181101561258657828155600101612573565b505050505050565b818103612599575050565b6125a38254612474565b67ffffffffffffffff8111156125bb576125bb612176565b6125cf816125c98454612474565b84612540565b6000601f82116001811461260357600083156125eb5750848201545b600019600385901b1c1916600184901b178455612668565b600085815260209020601f19841690600086815260209020845b8381101561263d578286015482556001958601959091019060200161261d565b508583101561265b5781850154600019600388901b60f8161c191681555b50505060018360011b0184555b5050505050565b600080835461267d81612474565b6001828116801561269557600181146126aa576126d9565b60ff19841687528215158302870194506126d9565b8760005260208060002060005b858110156126d05781548a8201529084019082016126b7565b50505082870194505b50929695505050505050565b634e487b7160e01b600052603260045260246000fd5b634e487b7160e01b600052601160045260246000fd5b600060018201612723576127236126fb565b5060010190565b815167ffffffffffffffff81111561274457612744612176565b612752816125c98454612474565b602080601f831160018114612787576000841561276f5750858301515b600019600386901b1c1916600185901b178555612586565b600085815260208120601f198616915b828110156127b657888601518255948401946001909101908401612797565b50858210156127d45787850151600019600388901b60f8161c191681555b5050505050600190811b01905550565b60208082526025908201527f4552433732313a207472616e736665722066726f6d20696e636f72726563742060408201526437bbb732b960d91b606082015260800190565b60208082526032908201527f4552433732313a207472616e7366657220746f206e6f6e20455243373231526560408201527131b2b4bb32b91034b6b83632b6b2b73a32b960711b606082015260800190565b8181038181111561043e5761043e6126fb565b8082018082111561043e5761043e6126fb565b6001600160a01b03858116825284166020820152604081018390526080606082018190526000906128d4908301846120d8565b9695505050505050565b6000602082840312156128f057600080fd5b81516118658161208156fea2646970667358221220a43cb1f3a251cb4d5b9da2a2e743ca158967bf0a26cdf036034e24c93c92d34464736f6c63430008110033",
  "linkReferences": {},
  "deployedLinkReferences": {}
}