{
  "_format": "hh-sol-artifact-1",
  "contractName": "Marketplace",
  "sourceName": "contracts/Marketplace.sol",
  "abi": [
    {
      "inputs": [],
      "stateMutability": "nonpayable",
      "type": "constructor"
    },
    {
      "anonymous": false,
      "inputs": [
        {
          "indexed": true,
          "internalType": "address",
          "name": "owner",
          "type": "address"
        },
        {
          "indexed": true,
          "internalType": "address",
          "name": "approved",
          "type": "address"
        },
        {
          "indexed": true,
          "internalType": "uint256",
          "name": "tokenId",
          "type": "uint256"
        }
      ],
      "name": "Approval",
      "type": "event"
    },
    {
      "anonymous": false,
      "inputs": [
        {
          "indexed": true,
          "internalType": "address",
          "name": "owner",
          "type": "address"
        },
        {
          "indexed": true,
          "internalType": "address",
          "name": "operator",
          "type": "address"
        },
        {
          "indexed": false,
          "internalType": "bool",
          "name": "approved",
          "type": "bool"
        }
      ],
      "name": "ApprovalForAll",
      "type": "event"
    },
    {
      "anonymous": false,
      "inputs": [
        {
          "indexed": false,
          "internalType": "address",
          "name": "seller",
          "type": "address"
        },
        {
          "indexed": false,
          "internalType": "uint256",
          "name": "quantity",
          "type": "uint256"
        },
        {
          "indexed": false,
          "internalType": "uint256",
          "name": "price",
          "type": "uint256"
        }
      ],
      "name": "NFTListed",
      "type": "event"
    },
    {
      "anonymous": false,
      "inputs": [
        {
          "indexed": false,
          "internalType": "uint256",
          "name": "_id",
          "type": "uint256"
        }
      ],
      "name": "NFTMinted",
      "type": "event"
    },
    {
      "anonymous": false,
      "inputs": [
        {
          "indexed": false,
          "internalType": "address",
          "name": "seller",
          "type": "address"
        },
        {
          "indexed": false,
          "internalType": "address",
          "name": "buyer",
          "type": "address"
        },
        {
          "indexed": false,
          "internalType": "uint256",
          "name": "price",
          "type": "uint256"
        }
      ],
      "name": "NFTSold",
      "type": "event"
    },
    {
      "anonymous": false,
      "inputs": [
        {
          "indexed": true,
          "internalType": "address",
          "name": "from",
          "type": "address"
        },
        {
          "indexed": true,
          "internalType": "address",
          "name": "to",
          "type": "address"
        },
        {
          "indexed": true,
          "internalType": "uint256",
          "name": "tokenId",
          "type": "uint256"
        }
      ],
      "name": "Transfer",
      "type": "event"
    },
    {
      "inputs": [],
      "name": "LISTING_FEE",
      "outputs": [
        {
          "internalType": "uint256",
          "name": "",
          "type": "uint256"
        }
      ],
      "stateMutability": "view",
      "type": "function"
    },
    {
      "inputs": [
        {
          "internalType": "string",
          "name": "",
          "type": "string"
        }
      ],
      "name": "_idToNFT",
      "outputs": [
        {
          "internalType": "address payable",
          "name": "seller",
          "type": "address"
        },
        {
          "internalType": "uint256",
          "name": "price",
          "type": "uint256"
        },
        {
          "internalType": "bool",
          "name": "listed",
          "type": "bool"
        },
        {
          "internalType": "uint256",
          "name": "quantity",
          "type": "uint256"
        },
        {
          "internalType": "string",
          "name": "tokenId",
          "type": "string"
        }
      ],
      "stateMutability": "view",
      "type": "function"
    },
    {
      "inputs": [
        {
          "internalType": "address",
          "name": "to",
          "type": "address"
        },
        {
          "internalType": "uint256",
          "name": "tokenId",
          "type": "uint256"
        }
      ],
      "name": "approve",
      "outputs": [],
      "stateMutability": "nonpayable",
      "type": "function"
    },
    {
      "inputs": [
        {
          "internalType": "address",
          "name": "",
          "type": "address"
        },
        {
          "internalType": "uint256",
          "name": "",
          "type": "uint256"
        }
      ],
      "name": "authorStore",
      "outputs": [
        {
          "internalType": "address payable",
          "name": "seller",
          "type": "address"
        },
        {
          "internalType": "uint256",
          "name": "price",
          "type": "uint256"
        },
        {
          "internalType": "bool",
          "name": "listed",
          "type": "bool"
        },
        {
          "internalType": "uint256",
          "name": "quantity",
          "type": "uint256"
        },
        {
          "internalType": "string",
          "name": "tokenId",
          "type": "string"
        }
      ],
      "stateMutability": "view",
      "type": "function"
    },
    {
      "inputs": [
        {
          "internalType": "address",
          "name": "owner",
          "type": "address"
        }
      ],
      "name": "balanceOf",
      "outputs": [
        {
          "internalType": "uint256",
          "name": "",
          "type": "uint256"
        }
      ],
      "stateMutability": "view",
      "type": "function"
    },
    {
      "inputs": [
        {
          "internalType": "string",
          "name": "_tokenUri",
          "type": "string"
        }
      ],
      "name": "buyNft",
      "outputs": [],
      "stateMutability": "payable",
      "type": "function"
    },
    {
      "inputs": [
        {
          "internalType": "uint256",
          "name": "tokenId",
          "type": "uint256"
        }
      ],
      "name": "getApproved",
      "outputs": [
        {
          "internalType": "address",
          "name": "",
          "type": "address"
        }
      ],
      "stateMutability": "view",
      "type": "function"
    },
    {
      "inputs": [],
      "name": "getListingFee",
      "outputs": [
        {
          "internalType": "uint256",
          "name": "",
          "type": "uint256"
        }
      ],
      "stateMutability": "view",
      "type": "function"
    },
    {
      "inputs": [
        {
          "internalType": "address",
          "name": "owner",
          "type": "address"
        },
        {
          "internalType": "address",
          "name": "operator",
          "type": "address"
        }
      ],
      "name": "isApprovedForAll",
      "outputs": [
        {
          "internalType": "bool",
          "name": "",
          "type": "bool"
        }
      ],
      "stateMutability": "view",
      "type": "function"
    },
    {
      "inputs": [
        {
          "internalType": "string",
          "name": "_tokenUri",
          "type": "string"
        },
        {
          "internalType": "uint256",
          "name": "_price",
          "type": "uint256"
        },
        {
          "internalType": "uint256",
          "name": "_quantity",
          "type": "uint256"
        }
      ],
      "name": "listNft",
      "outputs": [],
      "stateMutability": "payable",
      "type": "function"
    },
    {
      "inputs": [],
      "name": "name",
      "outputs": [
        {
          "internalType": "string",
          "name": "",
          "type": "string"
        }
      ],
      "stateMutability": "view",
      "type": "function"
    },
    {
      "inputs": [
        {
          "internalType": "string",
          "name": "_tokenUri",
          "type": "string"
        }
      ],
      "name": "nftExists",
      "outputs": [
        {
          "internalType": "bool",
          "name": "",
          "type": "bool"
        }
      ],
      "stateMutability": "view",
      "type": "function"
    },
    {
      "inputs": [
        {
          "internalType": "uint256",
          "name": "tokenId",
          "type": "uint256"
        }
      ],
      "name": "ownerOf",
      "outputs": [
        {
          "internalType": "address",
          "name": "",
          "type": "address"
        }
      ],
      "stateMutability": "view",
      "type": "function"
    },
    {
      "inputs": [
        {
          "internalType": "address",
          "name": "from",
          "type": "address"
        },
        {
          "internalType": "address",
          "name": "to",
          "type": "address"
        },
        {
          "internalType": "uint256",
          "name": "tokenId",
          "type": "uint256"
        }
      ],
      "name": "safeTransferFrom",
      "outputs": [],
      "stateMutability": "nonpayable",
      "type": "function"
    },
    {
      "inputs": [
        {
          "internalType": "address",
          "name": "from",
          "type": "address"
        },
        {
          "internalType": "address",
          "name": "to",
          "type": "address"
        },
        {
          "internalType": "uint256",
          "name": "tokenId",
          "type": "uint256"
        },
        {
          "internalType": "bytes",
          "name": "data",
          "type": "bytes"
        }
      ],
      "name": "safeTransferFrom",
      "outputs": [],
      "stateMutability": "nonpayable",
      "type": "function"
    },
    {
      "inputs": [
        {
          "internalType": "address",
          "name": "operator",
          "type": "address"
        },
        {
          "internalType": "bool",
          "name": "approved",
          "type": "bool"
        }
      ],
      "name": "setApprovalForAll",
      "outputs": [],
      "stateMutability": "nonpayable",
      "type": "function"
    },
    {
      "inputs": [
        {
          "internalType": "bytes4",
          "name": "interfaceId",
          "type": "bytes4"
        }
      ],
      "name": "supportsInterface",
      "outputs": [
        {
          "internalType": "bool",
          "name": "",
          "type": "bool"
        }
      ],
      "stateMutability": "view",
      "type": "function"
    },
    {
      "inputs": [],
      "name": "symbol",
      "outputs": [
        {
          "internalType": "string",
          "name": "",
          "type": "string"
        }
      ],
      "stateMutability": "view",
      "type": "function"
    },
    {
      "inputs": [
        {
          "internalType": "uint256",
          "name": "tokenId",
          "type": "uint256"
        }
      ],
      "name": "tokenURI",
      "outputs": [
        {
          "internalType": "string",
          "name": "",
          "type": "string"
        }
      ],
      "stateMutability": "view",
      "type": "function"
    },
    {
      "inputs": [
        {
          "internalType": "address",
          "name": "from",
          "type": "address"
        },
        {
          "internalType": "address",
          "name": "to",
          "type": "address"
        },
        {
          "internalType": "uint256",
          "name": "tokenId",
          "type": "uint256"
        }
      ],
      "name": "transferFrom",
      "outputs": [],
      "stateMutability": "nonpayable",
      "type": "function"
    }
  ],
  "bytecode": "0x6080604052655af3107a4000600b553480156200001b57600080fd5b50604051806040016040528060098152602001682137b7b5a1b7bb32b960b91b8152506040518060400160405280600381526020016244424360e81b8152506001600081905550816001908162000073919062000152565b50600262000082828262000152565b505060098054336001600160a01b03199182168117909255600c80549091169091179055506200021e565b634e487b7160e01b600052604160045260246000fd5b600181811c90821680620000d857607f821691505b602082108103620000f957634e487b7160e01b600052602260045260246000fd5b50919050565b601f8211156200014d57600081815260208120601f850160051c81016020861015620001285750805b601f850160051c820191505b81811015620001495782815560010162000134565b5050505b505050565b81516001600160401b038111156200016e576200016e620000ad565b62000186816200017f8454620000c3565b84620000ff565b602080601f831160018114620001be5760008415620001a55750858301515b600019600386901b1c1916600185901b17855562000149565b600085815260208120601f198616915b82811015620001ef57888601518255948401946001909101908401620001ce565b50858210156200020e5787850151600019600388901b60f8161c191681555b5050505050600190811b01905550565b612704806200022e6000396000f3fe60806040526004361061011f5760003560e01c806370a08231116100a0578063b8fe6abe11610064578063b8fe6abe1461033f578063c87b56dd14610354578063d5efffaf14610374578063e1a7424114610387578063e985e9c51461039a57600080fd5b806370a08231146102aa57806395d89b41146102ca578063a22cb465146102df578063a7d58dc3146102ff578063b88d4fde1461031f57600080fd5b80632b86ae38116100e75780632b86ae38146101f55780632f3bdafd1461021957806342842e0e1461024a5780636352211e1461026a57806365c4b8fd1461028a57600080fd5b806301ffc9a71461012457806306fdde0314610159578063081812fc1461017b578063095ea7b3146101b357806323b872dd146101d5575b600080fd5b34801561013057600080fd5b5061014461013f366004611eb7565b6103ba565b60405190151581526020015b60405180910390f35b34801561016557600080fd5b5061016e61040c565b6040516101509190611f24565b34801561018757600080fd5b5061019b610196366004611f37565b61049e565b6040516001600160a01b039091168152602001610150565b3480156101bf57600080fd5b506101d36101ce366004611f6c565b6104c5565b005b3480156101e157600080fd5b506101d36101f0366004611f96565b6105df565b34801561020157600080fd5b5061020b600b5481565b604051908152602001610150565b34801561022557600080fd5b5061023961023436600461207e565b610610565b6040516101509594939291906120b3565b34801561025657600080fd5b506101d3610265366004611f96565b6106e2565b34801561027657600080fd5b5061019b610285366004611f37565b6106fd565b34801561029657600080fd5b506101446102a536600461207e565b61075d565b3480156102b657600080fd5b5061020b6102c53660046120f3565b6108dd565b3480156102d657600080fd5b5061016e610963565b3480156102eb57600080fd5b506101d36102fa36600461210e565b610972565b34801561030b57600080fd5b5061023961031a366004611f6c565b610981565b34801561032b57600080fd5b506101d361033a36600461214a565b6109e8565b34801561034b57600080fd5b50600b5461020b565b34801561036057600080fd5b5061016e61036f366004611f37565b610a20565b6101d361038236600461207e565b610b30565b6101d36103953660046121c6565b610eca565b3480156103a657600080fd5b506101446103b5366004612214565b61124d565b60006001600160e01b031982166380ac58cd60e01b14806103eb57506001600160e01b03198216635b5e139f60e01b145b8061040657506301ffc9a760e01b6001600160e01b03198316145b92915050565b60606001805461041b90612247565b80601f016020809104026020016040519081016040528092919081815260200182805461044790612247565b80156104945780601f1061046957610100808354040283529160200191610494565b820191906000526020600020905b81548152906001019060200180831161047757829003601f168201915b5050505050905090565b60006104a98261127b565b506000908152600560205260409020546001600160a01b031690565b60006104d0826106fd565b9050806001600160a01b0316836001600160a01b0316036105425760405162461bcd60e51b815260206004820152602160248201527f4552433732313a20617070726f76616c20746f2063757272656e74206f776e656044820152603960f91b60648201526084015b60405180910390fd5b336001600160a01b038216148061055e575061055e813361124d565b6105d05760405162461bcd60e51b815260206004820152603d60248201527f4552433732313a20617070726f76652063616c6c6572206973206e6f7420746f60448201527f6b656e206f776e6572206f7220617070726f76656420666f7220616c6c0000006064820152608401610539565b6105da83836112da565b505050565b6105e93382611348565b6106055760405162461bcd60e51b81526004016105399061227b565b6105da8383836113a6565b8051602081830181018051600d82529282019190930120915280546001820154600283015460038401546005850180546001600160a01b0390951695939460ff90931693919261065f90612247565b80601f016020809104026020016040519081016040528092919081815260200182805461068b90612247565b80156106d85780601f106106ad576101008083540402835291602001916106d8565b820191906000526020600020905b8154815290600101906020018083116106bb57829003601f168201915b5050505050905085565b6105da838383604051806020016040528060008152506109e8565b6000818152600360205260408120546001600160a01b0316806104065760405162461bcd60e51b8152602060048201526018602482015277115490cdcc8c4e881a5b9d985b1a59081d1bdad95b88125160421b6044820152606401610539565b600080600d8360405161077091906122c8565b90815260408051918290036020908101832060c08401835280546001600160a01b03168452600181015484830152600281015460ff16151584840152600381015460608501526004810180548451818502810185019095528085529193608086019390929083018282801561080e57602002820191906000526020600020905b81546001600160a01b031681526001909101906020018083116107f0575b5050505050815260200160058201805461082790612247565b80601f016020809104026020016040519081016040528092919081815260200182805461085390612247565b80156108a05780601f10610875576101008083540402835291602001916108a0565b820191906000526020600020905b81548152906001019060200180831161088357829003601f168201915b50505050508152505090508060200151600014806108c057506060810151155b156108ce5750600092915050565b50600192915050565b50919050565b60006001600160a01b0382166109475760405162461bcd60e51b815260206004820152602960248201527f4552433732313a2061646472657373207a65726f206973206e6f7420612076616044820152683634b21037bbb732b960b91b6064820152608401610539565b506001600160a01b031660009081526004602052604090205490565b60606002805461041b90612247565b61097d338383611517565b5050565b600e602052816000526040600020818154811061099d57600080fd5b6000918252602090912060069091020180546001820154600283015460038401546005850180546001600160a01b03909516975092955060ff90911693909290919061065f90612247565b6109f23383611348565b610a0e5760405162461bcd60e51b81526004016105399061227b565b610a1a848484846115e5565b50505050565b6060610a2b8261127b565b60008281526007602052604081208054610a4490612247565b80601f0160208091040260200160405190810160405280929190818152602001828054610a7090612247565b8015610abd5780601f10610a9257610100808354040283529160200191610abd565b820191906000526020600020905b815481529060010190602001808311610aa057829003601f168201915b505050505090506000610adb60408051602081019091526000815290565b90508051600003610aed575092915050565b815115610b1f578082604051602001610b079291906122e4565b60405160208183030381529060405292505050919050565b610b2884611618565b949350505050565b610b3861168c565b6000600d82604051610b4a91906122c8565b90815260200160405180910390209050610b638261075d565b1515600114610ba95760405162461bcd60e51b815260206004820152601260248201527113919508191bd95cc81b9bdd08195e1a5cdd60721b6044820152606401610539565b80600101543414610c175760405162461bcd60e51b815260206004820152603260248201527f4e6f7420656e6f756768206f7220746f6f206d75636820657468657220746f20604482015271636f7665722061736b696e6720707269636560701b6064820152608401610539565b6003810154600482015410610c5f5760405162461bcd60e51b815260206004820152600e60248201526d1391951cc81b585e1959081bdd5d60921b6044820152606401610539565b610c68826116e5565b50600481018054600181018255600091825260209091200180546001600160a01b031916331790556040518190600d90610ca39085906122c8565b908152604051908190036020019020815481546001600160a01b0319166001600160a01b0390911617815560018083015490820155600280830154908201805460ff909216151560ff199092169190911790556003808301549082015560048083018054610d149284019190611c6f565b50600581810190610d2790840182612361565b505081546001600160a01b03166000908152600e6020526040812091505b8154811015610e355782600501604051602001610d629190612442565b60405160208183030381529060405280519060200120828281548110610d8a57610d8a6124b8565b9060005260206000209060060201600501604051602001610dab9190612442565b6040516020818303038152906040528051906020012003610e255782600401828281548110610ddc57610ddc6124b8565b9060005260206000209060060201600401908054610dfb929190611c6f565b5082546001600160a01b03166000908152600e602052604090208254610e2391908490611cbf565b505b610e2e816124e4565b9050610d45565b50815460405133916001600160a01b0316903480156108fc02916000818181858888f19350505050158015610e6e573d6000803e3d6000fd5b508254604080516001600160a01b03928316815291831660208301523482820152517f777395bdf59f3645ce2ad2d0ea17e3d827249c006023a69bb899e5c4efbcced59181900360600190a1505050610ec76001600055565b50565b610ed261168c565b606060008311610f245760405162461bcd60e51b815260206004820152601c60248201527f5072696365206d757374206265206174206c65617374203120776569000000006044820152606401610539565b60008211610f745760405162461bcd60e51b815260206004820152601f60248201527f5175616e74697479206d7573742062652067726561746572207468616e2030006044820152606401610539565b610f7d8461075d565b1515600103610fc35760405162461bcd60e51b81526020600482015260126024820152714e465420616c72656164792065786973747360701b6044820152606401610539565b600b5434146110145760405162461bcd60e51b815260206004820181905260248201527f4e6f7420656e6f75676820657468657220666f72206c697374696e67206665656044820152606401610539565b611022600a80546001019055565b61102b846116e5565b506040518060c00160405280336001600160a01b0316815260200184815260200160011515815260200183815260200182815260200185815250600d8560405161107591906122c8565b9081526040805160209281900383019020835181546001600160a01b0319166001600160a01b039091161781558383015160018201559083015160028201805460ff1916911515919091179055606083015160038201556080830151805191926110e792600485019290910190611d89565b5060a082015160058201906110fc90826124fd565b5050336000818152600e60209081526040808320815160c0810183529485528483018981526001928601838152606087018a8152608088018a815260a089018e90528454808701865594885296869020885160069095020180546001600160a01b0319166001600160a01b03909516949094178455915193830193909355915160028201805460ff1916911515919091179055905160038201559151805193945091926111af9260048501920190611d89565b5060a082015160058201906111c490826124fd565b5050600c546040516001600160a01b0390911691503480156108fc02916000818181858888f19350505050158015611200573d6000803e3d6000fd5b5060408051338152602081018490529081018490527fbbf44e68296791df5535457da734bf1017c4b233a740af6d7a89b9f1af4ecb429060600160405180910390a1506105da6001600055565b6001600160a01b03918216600090815260066020908152604080832093909416825291909152205460ff1690565b6000818152600360205260409020546001600160a01b0316610ec75760405162461bcd60e51b8152602060048201526018602482015277115490cdcc8c4e881a5b9d985b1a59081d1bdad95b88125160421b6044820152606401610539565b600081815260056020526040902080546001600160a01b0319166001600160a01b038416908117909155819061130f826106fd565b6001600160a01b03167f8c5be1e5ebec7d5bd14f71427d1e84f3dd0314c0f7b2291e5b200ac8c7c3b92560405160405180910390a45050565b600080611354836106fd565b9050806001600160a01b0316846001600160a01b0316148061137b575061137b818561124d565b80610b285750836001600160a01b03166113948461049e565b6001600160a01b031614949350505050565b826001600160a01b03166113b9826106fd565b6001600160a01b0316146113df5760405162461bcd60e51b8152600401610539906125b7565b6001600160a01b0382166114415760405162461bcd60e51b8152602060048201526024808201527f4552433732313a207472616e7366657220746f20746865207a65726f206164646044820152637265737360e01b6064820152608401610539565b61144e838383600161174f565b826001600160a01b0316611461826106fd565b6001600160a01b0316146114875760405162461bcd60e51b8152600401610539906125b7565b600081815260056020908152604080832080546001600160a01b03199081169091556001600160a01b0387811680865260048552838620805460001901905590871680865283862080546001019055868652600390945282852080549092168417909155905184937fddf252ad1be2c89b69c2b068fc378daa952ba7f163c4a11628f55a4df523b3ef91a4505050565b816001600160a01b0316836001600160a01b0316036115785760405162461bcd60e51b815260206004820152601960248201527f4552433732313a20617070726f766520746f2063616c6c6572000000000000006044820152606401610539565b6001600160a01b03838116600081815260066020908152604080832094871680845294825291829020805460ff191686151590811790915591519182527f17307eab39ab6107e8899845ad3d59bd9653f200f220920489ca2b5937696c31910160405180910390a3505050565b6115f08484846113a6565b6115fc848484846117d7565b610a1a5760405162461bcd60e51b8152600401610539906125fc565b60606116238261127b565b600061163a60408051602081019091526000815290565b9050600081511161165a5760405180602001604052806000815250611685565b80611664846118d8565b6040516020016116759291906122e4565b6040516020818303038152906040525b9392505050565b6002600054036116de5760405162461bcd60e51b815260206004820152601f60248201527f5265656e7472616e637947756172643a207265656e7472616e742063616c6c006044820152606401610539565b6002600055565b60006116f5600880546001019055565b600061170060085490565b905061170c338261196b565b6117168184611b04565b6040518181527fd9dc24857f317ed9abbbb42e920ede0104231eb1d3d70236a74887ffaf1598689060200160405180910390a192915050565b6001811115610a1a576001600160a01b03841615611795576001600160a01b0384166000908152600460205260408120805483929061178f90849061264e565b90915550505b6001600160a01b03831615610a1a576001600160a01b038316600090815260046020526040812080548392906117cc908490612661565b909155505050505050565b60006001600160a01b0384163b156118cd57604051630a85bd0160e11b81526001600160a01b0385169063150b7a029061181b903390899088908890600401612674565b6020604051808303816000875af1925050508015611856575060408051601f3d908101601f19168201909252611853918101906126b1565b60015b6118b3573d808015611884576040519150601f19603f3d011682016040523d82523d6000602084013e611889565b606091505b5080516000036118ab5760405162461bcd60e51b8152600401610539906125fc565b805181602001fd5b6001600160e01b031916630a85bd0160e11b149050610b28565b506001949350505050565b606060006118e583611b97565b600101905060008167ffffffffffffffff81111561190557611905611fd2565b6040519080825280601f01601f19166020018201604052801561192f576020820181803683370190505b5090508181016020015b600019016f181899199a1a9b1b9c1cb0b131b232b360811b600a86061a8153600a850494508461193957509392505050565b6001600160a01b0382166119c15760405162461bcd60e51b815260206004820181905260248201527f4552433732313a206d696e7420746f20746865207a65726f20616464726573736044820152606401610539565b6000818152600360205260409020546001600160a01b031615611a265760405162461bcd60e51b815260206004820152601c60248201527f4552433732313a20746f6b656e20616c7265616479206d696e746564000000006044820152606401610539565b611a3460008383600161174f565b6000818152600360205260409020546001600160a01b031615611a995760405162461bcd60e51b815260206004820152601c60248201527f4552433732313a20746f6b656e20616c7265616479206d696e746564000000006044820152606401610539565b6001600160a01b038216600081815260046020908152604080832080546001019055848352600390915280822080546001600160a01b0319168417905551839291907fddf252ad1be2c89b69c2b068fc378daa952ba7f163c4a11628f55a4df523b3ef908290a45050565b6000828152600360205260409020546001600160a01b0316611b7f5760405162461bcd60e51b815260206004820152602e60248201527f45524337323155524953746f726167653a2055524920736574206f66206e6f6e60448201526d32bc34b9ba32b73a103a37b5b2b760911b6064820152608401610539565b60008281526007602052604090206105da82826124fd565b60008072184f03e93ff9f4daa797ed6e38ed64bf6a1f0160401b8310611bd65772184f03e93ff9f4daa797ed6e38ed64bf6a1f0160401b830492506040015b6d04ee2d6d415b85acef81000000008310611c02576d04ee2d6d415b85acef8100000000830492506020015b662386f26fc100008310611c2057662386f26fc10000830492506010015b6305f5e1008310611c38576305f5e100830492506008015b6127108310611c4c57612710830492506004015b60648310611c5e576064830492506002015b600a83106104065760010192915050565b828054828255906000526020600020908101928215611caf5760005260206000209182015b82811115611caf578254825591600101919060010190611c94565b50611cbb929150611dde565b5090565b828054828255906000526020600020906006028101928215611d7d5760005260206000209160060282015b82811115611d7d57825482546001600160a01b0319166001600160a01b0390911617825560018084015490830155600280840154908301805460ff909216151560ff19909216919091179055600380840154908301556004808401805485928592611d589291840191611c6f565b50600581810190611d6b90840182612361565b50505091600601919060060190611cea565b50611cbb929150611df3565b828054828255906000526020600020908101928215611caf579160200282015b82811115611caf57825182546001600160a01b0319166001600160a01b03909116178255602090920191600190910190611da9565b5b80821115611cbb5760008155600101611ddf565b80821115611cbb5780546001600160a01b031916815560006001820181905560028201805460ff1916905560038201819055611e326004830182611e49565b611e40600583016000611e67565b50600601611df3565b5080546000825590600052602060002090810190610ec79190611dde565b508054611e7390612247565b6000825580601f10611e83575050565b601f016020900490600052602060002090810190610ec79190611dde565b6001600160e01b031981168114610ec757600080fd5b600060208284031215611ec957600080fd5b813561168581611ea1565b60005b83811015611eef578181015183820152602001611ed7565b50506000910152565b60008151808452611f10816020860160208601611ed4565b601f01601f19169290920160200192915050565b6020815260006116856020830184611ef8565b600060208284031215611f4957600080fd5b5035919050565b80356001600160a01b0381168114611f6757600080fd5b919050565b60008060408385031215611f7f57600080fd5b611f8883611f50565b946020939093013593505050565b600080600060608486031215611fab57600080fd5b611fb484611f50565b9250611fc260208501611f50565b9150604084013590509250925092565b634e487b7160e01b600052604160045260246000fd5b600067ffffffffffffffff8084111561200357612003611fd2565b604051601f8501601f19908116603f0116810190828211818310171561202b5761202b611fd2565b8160405280935085815286868601111561204457600080fd5b858560208301376000602087830101525050509392505050565b600082601f83011261206f57600080fd5b61168583833560208501611fe8565b60006020828403121561209057600080fd5b813567ffffffffffffffff8111156120a757600080fd5b610b288482850161205e565b60018060a01b0386168152846020820152831515604082015282606082015260a0608082015260006120e860a0830184611ef8565b979650505050505050565b60006020828403121561210557600080fd5b61168582611f50565b6000806040838503121561212157600080fd5b61212a83611f50565b91506020830135801515811461213f57600080fd5b809150509250929050565b6000806000806080858703121561216057600080fd5b61216985611f50565b935061217760208601611f50565b925060408501359150606085013567ffffffffffffffff81111561219a57600080fd5b8501601f810187136121ab57600080fd5b6121ba87823560208401611fe8565b91505092959194509250565b6000806000606084860312156121db57600080fd5b833567ffffffffffffffff8111156121f257600080fd5b6121fe8682870161205e565b9660208601359650604090950135949350505050565b6000806040838503121561222757600080fd5b61223083611f50565b915061223e60208401611f50565b90509250929050565b600181811c9082168061225b57607f821691505b6020821081036108d757634e487b7160e01b600052602260045260246000fd5b6020808252602d908201527f4552433732313a2063616c6c6572206973206e6f7420746f6b656e206f776e6560408201526c1c881bdc88185c1c1c9bdd9959609a1b606082015260800190565b600082516122da818460208701611ed4565b9190910192915050565b600083516122f6818460208801611ed4565b83519083019061230a818360208801611ed4565b01949350505050565b601f8211156105da57600081815260208120601f850160051c8101602086101561233a5750805b601f850160051c820191505b8181101561235957828155600101612346565b505050505050565b81810361236c575050565b6123768254612247565b67ffffffffffffffff81111561238e5761238e611fd2565b6123a28161239c8454612247565b84612313565b6000601f8211600181146123d657600083156123be5750848201545b600019600385901b1c1916600184901b17845561243b565b600085815260209020601f19841690600086815260209020845b8381101561241057828601548255600195860195909101906020016123f0565b508583101561242e5781850154600019600388901b60f8161c191681555b50505060018360011b0184555b5050505050565b600080835461245081612247565b60018281168015612468576001811461247d576124ac565b60ff19841687528215158302870194506124ac565b8760005260208060002060005b858110156124a35781548a82015290840190820161248a565b50505082870194505b50929695505050505050565b634e487b7160e01b600052603260045260246000fd5b634e487b7160e01b600052601160045260246000fd5b6000600182016124f6576124f66124ce565b5060010190565b815167ffffffffffffffff81111561251757612517611fd2565b6125258161239c8454612247565b602080601f83116001811461255a57600084156125425750858301515b600019600386901b1c1916600185901b178555612359565b600085815260208120601f198616915b828110156125895788860151825594840194600190910190840161256a565b50858210156125a75787850151600019600388901b60f8161c191681555b5050505050600190811b01905550565b60208082526025908201527f4552433732313a207472616e736665722066726f6d20696e636f72726563742060408201526437bbb732b960d91b606082015260800190565b60208082526032908201527f4552433732313a207472616e7366657220746f206e6f6e20455243373231526560408201527131b2b4bb32b91034b6b83632b6b2b73a32b960711b606082015260800190565b81810381811115610406576104066124ce565b80820180821115610406576104066124ce565b6001600160a01b03858116825284166020820152604081018390526080606082018190526000906126a790830184611ef8565b9695505050505050565b6000602082840312156126c357600080fd5b815161168581611ea156fea2646970667358221220df1126fe552a0dbe7cc75cdfa9fa4e7b6217bd8619eb715343a80b10b9340a6c64736f6c63430008110033",
  "linkReferences": {},
  "deployedLinkReferences": {}
}