{
  "_format": "hh-sol-artifact-1",
  "contractName": "DelibraUserAuth",
  "sourceName": "contracts/User.sol",
  "abi": [
    {
      "anonymous": false,
      "inputs": [
        {
          "indexed": false,
          "internalType": "address",
          "name": "_addr",
          "type": "address"
        },
        {
          "indexed": false,
          "internalType": "uint256",
          "name": "timestamp",
          "type": "uint256"
        }
      ],
      "name": "UserCreated",
      "type": "event"
    },
    {
      "anonymous": false,
      "inputs": [
        {
          "indexed": false,
          "internalType": "address",
          "name": "_addr",
          "type": "address"
        },
        {
          "indexed": false,
          "internalType": "uint256",
          "name": "timestamp",
          "type": "uint256"
        }
      ],
      "name": "UserUpdated",
      "type": "event"
    },
    {
      "inputs": [],
      "name": "getUserInfo",
      "outputs": [
        {
          "components": [
            {
              "internalType": "string",
              "name": "userName",
              "type": "string"
            },
            {
              "internalType": "bool",
              "name": "onboarded",
              "type": "bool"
            },
            {
              "internalType": "enum DelibraUserAuth.UserType",
              "name": "userType",
              "type": "uint8"
            },
            {
              "internalType": "string",
              "name": "profileUrl",
              "type": "string"
            }
          ],
          "internalType": "struct DelibraUserAuth.User",
          "name": "",
          "type": "tuple"
        }
      ],
      "stateMutability": "view",
      "type": "function"
    },
    {
      "inputs": [
        {
          "internalType": "address",
          "name": "_addr",
          "type": "address"
        }
      ],
      "name": "isDelibraUser",
      "outputs": [
        {
          "internalType": "bool",
          "name": "",
          "type": "bool"
        }
      ],
      "stateMutability": "view",
      "type": "function"
    },
    {
      "inputs": [
        {
          "internalType": "string",
          "name": "_username",
          "type": "string"
        },
        {
          "internalType": "bool",
          "name": "_onboarded",
          "type": "bool"
        },
        {
          "internalType": "enum DelibraUserAuth.UserType",
          "name": "_usertype",
          "type": "uint8"
        },
        {
          "internalType": "string",
          "name": "_profileUrl",
          "type": "string"
        }
      ],
      "name": "setUserInfo",
      "outputs": [
        {
          "internalType": "bool",
          "name": "",
          "type": "bool"
        }
      ],
      "stateMutability": "nonpayable",
      "type": "function"
    },
    {
      "inputs": [
        {
          "internalType": "address",
          "name": "",
          "type": "address"
        }
      ],
      "name": "users",
      "outputs": [
        {
          "internalType": "string",
          "name": "userName",
          "type": "string"
        },
        {
          "internalType": "bool",
          "name": "onboarded",
          "type": "bool"
        },
        {
          "internalType": "enum DelibraUserAuth.UserType",
          "name": "userType",
          "type": "uint8"
        },
        {
          "internalType": "string",
          "name": "profileUrl",
          "type": "string"
        }
      ],
      "stateMutability": "view",
      "type": "function"
    }
  ],
  "bytecode": "0x608060405234801561001057600080fd5b50610a71806100206000396000f3fe608060405234801561001057600080fd5b506004361061004c5760003560e01c8063227a8179146100515780632943a6bd146100795780635d8d15851461008c578063a87430ba146100a1575b600080fd5b61006461005f366004610660565b6100c4565b60405190151581526020015b60405180910390f35b6100646100873660046106d9565b61012b565b61009461031b565b60405161007091906107f9565b6100b46100af366004610660565b61051f565b604051610070949392919061085a565b6000805b60015481101561012257826001600160a01b0316600182815481106100ef576100ef61089f565b6000918252602090912001546001600160a01b0316036101125750600192915050565b61011b816108b5565b90506100c8565b50600092915050565b6040805160a06020601f89018190040282018101909252608081018781526000928291908a908a90819085018382808284376000920191909152505050908252508615156020820152604001856002811115610189576101896107c1565b815260200184848080601f0160208091040260200160405190810160405280939291908181526020018383808284376000920182905250939094525050338152602081905260409020825190915081906101e3908261097b565b50602082015160018201805491151560ff1983168117825560408501519261ff001990911661ffff1990911617610100836002811115610225576102256107c1565b02179055506060820151600282019061023e908261097b565b5090505061024b336100c4565b15156000036102d5576001805480820182556000919091527fb10e2d527612073b26eecdfd717e6a320cf44b4afac2b0732d9fcbe2b7fa0cf60180546001600160a01b03191633908117909155604080519182524260208301527fa27642fccf9a9a0a8a8e31188dfec60a6565c30a20ef3ed1eb3a779a79a36b2e910160405180910390a161030e565b604080513381524260208201527f43ca283f77ef1cc413e9ed99cf3cec9f055cb57e133c045a39cbf70cb068057f910160405180910390a15b5060019695505050505050565b610347604080516080810182526060815260006020820181905290918201908152602001606081525090565b610350336100c4565b151560011461039a5760405162461bcd60e51b81526020600482015260126024820152712737ba1030903232b634b13930903ab9b2b960711b604482015260640160405180910390fd5b33600090815260208190526040908190208151608081019092528054829082906103c3906108f2565b80601f01602080910402602001604051908101604052809291908181526020018280546103ef906108f2565b801561043c5780601f106104115761010080835404028352916020019161043c565b820191906000526020600020905b81548152906001019060200180831161041f57829003601f168201915b5050509183525050600182015460ff80821615156020840152604090920191610100909104166002811115610473576104736107c1565b6002811115610484576104846107c1565b8152602001600282018054610498906108f2565b80601f01602080910402602001604051908101604052809291908181526020018280546104c4906108f2565b80156105115780601f106104e657610100808354040283529160200191610511565b820191906000526020600020905b8154815290600101906020018083116104f457829003601f168201915b505050505081525050905090565b60006020819052908152604090208054819061053a906108f2565b80601f0160208091040260200160405190810160405280929190818152602001828054610566906108f2565b80156105b35780601f10610588576101008083540402835291602001916105b3565b820191906000526020600020905b81548152906001019060200180831161059657829003601f168201915b505050506001830154600284018054939460ff80841695610100909404169350916105dd906108f2565b80601f0160208091040260200160405190810160405280929190818152602001828054610609906108f2565b80156106565780601f1061062b57610100808354040283529160200191610656565b820191906000526020600020905b81548152906001019060200180831161063957829003601f168201915b5050505050905084565b60006020828403121561067257600080fd5b81356001600160a01b038116811461068957600080fd5b9392505050565b60008083601f8401126106a257600080fd5b50813567ffffffffffffffff8111156106ba57600080fd5b6020830191508360208285010111156106d257600080fd5b9250929050565b600080600080600080608087890312156106f257600080fd5b863567ffffffffffffffff8082111561070a57600080fd5b6107168a838b01610690565b909850965060208901359150811515821461073057600080fd5b9094506040880135906003821061074657600080fd5b9093506060880135908082111561075c57600080fd5b5061076989828a01610690565b979a9699509497509295939492505050565b6000815180845260005b818110156107a157602081850181015186830182015201610785565b506000602082860101526020601f19601f83011685010191505092915050565b634e487b7160e01b600052602160045260246000fd5b600381106107f557634e487b7160e01b600052602160045260246000fd5b9052565b60208152600082516080602084015261081560a084018261077b565b9050602084015115156040840152604084015161083560608501826107d7565b506060840151838203601f19016080850152610851828261077b565b95945050505050565b60808152600061086d608083018761077b565b851515602084015261088260408401866107d7565b8281036060840152610894818561077b565b979650505050505050565b634e487b7160e01b600052603260045260246000fd5b6000600182016108d557634e487b7160e01b600052601160045260246000fd5b5060010190565b634e487b7160e01b600052604160045260246000fd5b600181811c9082168061090657607f821691505b60208210810361092657634e487b7160e01b600052602260045260246000fd5b50919050565b601f82111561097657600081815260208120601f850160051c810160208610156109535750805b601f850160051c820191505b818110156109725782815560010161095f565b5050505b505050565b815167ffffffffffffffff811115610995576109956108dc565b6109a9816109a384546108f2565b8461092c565b602080601f8311600181146109de57600084156109c65750858301515b600019600386901b1c1916600185901b178555610972565b600085815260208120601f198616915b82811015610a0d578886015182559484019460019091019084016109ee565b5085821015610a2b5787850151600019600388901b60f8161c191681555b5050505050600190811b0190555056fea2646970667358221220cd95c955f1b0ff5610bfd8784a4c45701ae41f753be8b4440792f9f5a899c1d964736f6c63430008110033",
  "linkReferences": {},
  "deployedLinkReferences": {}
}